:100000000C946E000C948B000C948B000C948B0061
:100010000C948B000C948B000C948B000C948B0034
:100020000C948B000C948E090C948B000C948B0018
:100030000C948B000C948B000C948B000C948B0014
:100040000C9406020C948B000C94AB000C94D7001B
:100050000C948B000C9492070C948B000C948B00E6
:100060000C948B000C948B00D111ED11F211031242
:100070001412661566156615D51128122D12321246
:1000800037123C12441251125E126B127812851212
:1000900092129D12AA12B712C212CF12DC12E912EA
:1000A000F612031310131D132A13371342134F13A1
:1000B0005A136713741381138E1303149B1328149C
:1000C000B5134D14A8137214C2139714CF13BC1494
:1000D000DC13E114E9130C15F613301511241FBEBF
:1000E000CFEFD8E0DEBFCDBF12E0A0E0B1E0EAE69E
:1000F000FCE302C005900D92A830B107D9F714E0D7
:10010000A8E0B2E001C01D92AB3BB107E1F70E944D
:1001100097000C94331E0C94000089E190E00E943B
:1001200001010E9451160E944008789408950E948F
:100130008D000E9418090E94F006982F8823C9F3A9
:1001400080918E049817A9F390938E0410928B04DB
:100150000E944416EECF1F920F920FB60F921124F9
:100160002F938F939F93EF93FF939091C0002091D3
:10017000C600E0914A02EF5FEF7180914B02E817F1
:1001800011F482E008C0892F8871E0934A02F0E000
:10019000E85DFD4F208380934C02FF91EF919F918A
:1001A0008F912F910F900FBE0F901F9018951F9257
:1001B0000F920FB60F9211248F939F93EF93FF939B
:1001C0009091480280914902981769F0E0914902A4
:1001D000EF5FEF71E0934902F0E0E85FFD4F80814F
:1001E0008093C60005C08091C1008F7D8093C100BF
:1001F000FF91EF919F918F910F900FBE0F901F90E5
:1002000018959C01109248021092490210924A02DD
:1002100010924B0297FF04C082E08093C0003F77AA
:100220003093C5002093C40088E98093C10086E024
:100230008093C200089590914A0280914B029817D2
:1002400019F420E031E012C0E0914B02EF5FEF7152
:10025000E0934B02F0E0E85DFD4F308120914C02CD
:10026000922F80E0AC01430F511D9A01C9010895FE
:10027000282F909148029F5F9F71809149029817A3
:10028000E1F3E92FF0E0E85FFD4F2083909348020F
:100290008091C10080628093C1000895CF93DF9365
:1002A000EC0103C021960E94380188818823D1F790
:1002B000DF91CF910895CF93DF93EC0102C00E94AC
:1002C0003801FE01219684918823C9F7DF91CF91EF
:1002D000089580914A0220914B0290E04F96821B34
:1002E00091096FE170E00E94BE1D089580914B025C
:1002F00080934A02089527E030E0482F50E05C9850
:10030000CA01022E02C0959587950A94E2F780FDF6
:1003100002C05A9801C05A9A5C9A215030408FEF1F
:100320002F3F380761F708955F985F9A0895529AB2
:10033000539A549A579A5B985C985F985F9A109278
:100340008B0210928C0210928D0210928E021092EB
:100350008F021092900210929102109292021092CB
:1003600093021092940210929502109296021092AB
:100370009702109298021092990210929A0210928B
:100380009B0210929C0210929D0210929E0210926B
:100390009F021092A0021092A1021092A20210924B
:1003A000A3021092A4021092AB021092AA02109221
:1003B000A5021092A6021092A7021092A802109213
:1003C000A902E0E6F2E010821086108A108E178EE5
:1003D000319682E0E636F807B1F710821182108676
:1003E0001186108A118A108E178E10A211A212A2E5
:1003F00013A214A284B5836084BD85B5836085BDD6
:1004000080916E00816080936E0008951F920F921C
:100410000FB60F921124FF920F931F932F933F93C8
:100420004F935F936F937F938F939F93AF93BF93FC
:10043000EF93FF93FFB6F8948091880290E00196C5
:1004400087709070809388028091890290E0019675
:1004500067E070E00E94BE1D8093890280918A024D
:1004600090E0019666E070E00E94BE1D80938A02D3
:100470005B9890918802809188028295807F00E647
:1004800012E0F801E90FF11D9081892B0E947B0198
:1004900090918802809188028295807FF801E90F0F
:1004A000F11D9085892B0E947B019091880280919B
:1004B00088028295807FF801E90FF11D9089892BD0
:1004C0000E947B0190918902809189028295807FB0
:1004D000F801E90FF11D908D892B0E947B0190910D
:1004E0008A0280918A028295807F090F111DF8018E
:1004F000978D892B0E947B015B9AFFBEFF91EF9144
:10050000BF91AF919F918F917F916F915F914F912B
:100510003F912F911F910F91FF900F900FBE0F9061
:100520001F901895EF92FF920F931F937A018B0102
:100530008330C9F0843038F4813009F427C2823026
:1005400008F0A9C29EC1883009F42AC3893020F47A
:10055000843009F0D1C3CEC0893009F45BC38A303E
:1005600009F0CAC391C38091970290919802A0911B
:100570009902B0919A0284179507A607B70709F464
:10058000BBC3409397025093980260939902709373
:100590009A028AE090E060E070E00E9406089B0109
:1005A000AC01C801B7010E94D11DCA01B9012AE0FE
:1005B00030E040E050E00E94D11D609360028AE08C
:1005C00090E061E070E00E9406089B01AC01C80168
:1005D000B7010E94D11DCA01B9012AE030E040E014
:1005E00050E00E94D11D609361028AE090E062E0D9
:1005F00070E00E9406089B01AC01C801B7010E948F
:10060000D11DCA01B9012AE030E040E050E00E946B
:10061000D11D609362028AE090E063E070E00E9486
:1006200006089B01AC01C801B7010E94D11DCA0197
:10063000B9012AE030E040E050E00E94D11D609313
:1006400063028AE090E064E070E00E9406089B018B
:10065000AC01C801B7010E94D11DCA01B9012AE04D
:1006600030E040E050E00E94D11D609364028AE0D7
:1006700090E065E070E00E9406089B01AC01C801B3
:10068000B7010E94D11DCA01B9012AE030E040E063
:1006900050E00E94D11D609365028AE090E066E020
:1006A00070E00E9406089B01AC01C801B7010E94DE
:1006B000D11DCA01B9012AE030E040E050E00E94BB
:1006C000D11D609366028AE090E067E070E00E94CE
:1006D00006089B01AC01C801B7010E94D11DCA01E7
:1006E000B9012AE030E040E050E00E94D11D609363
:1006F000670202C380919B0290919C02A0919D028F
:10070000B0919E0284179507A607B70709F4F4C2B3
:1007100040939B0250939C0260939D0270939E02B3
:100720008AE090E060E070E00E9406089B01AC0166
:10073000C801B7010E94D11DCA01B9012AE030E009
:1007400040E050E00E94D11D609368028AE090E092
:1007500061E070E00E9406089B01AC01C801B7018E
:100760000E94D11DCA01B9012AE030E040E050E00A
:100770000E94D11D609369028AE090E062E070E01F
:100780000E9406089B01AC01C801B7010E94D11D5F
:10079000CA01B9012AE030E040E050E00E94D11DDA
:1007A00060936A028AE090E063E070E00E940608CD
:1007B0009B01AC01C801B7010E94D11DCA01B9015A
:1007C0002AE030E040E050E00E94D11D60936B02CF
:1007D0008AE090E064E070E00E9406089B01AC01B2
:1007E000C801B7010E94D11DCA01B9012AE030E059
:1007F00040E050E00E94D11D60936C028AE090E0DE
:1008000065E070E00E9406089B01AC01C801B701D9
:100810000E94D11DCA01B9012AE030E040E050E059
:100820000E94D11D60936D028AE090E066E070E066
:100830000E9406089B01AC01C801B7010E94D11DAE
:10084000CA01B9012AE030E040E050E00E94D11D29
:1008500060936E028AE090E067E070E00E94060814
:100860009B01AC01C801B7010E94D11DCA01B901A9
:100870002AE030E040E050E00E94D11D60936F021A
:100880003BC280918B0290918C02A0918D02B0911D
:100890008E0284179507A607B70709F42DC2409367
:1008A0008B0250938C0260938D0270938E028AE0CB
:1008B00090E060E070E00E9406089B01AC01C80176
:1008C000B7010E94D11DCA01B9012AE030E040E021
:1008D00050E00E94D11D609370028AE090E061E0D8
:1008E00070E00E9406089B01AC01C801B7010E949C
:1008F000D11DCA01B9012AE030E040E050E00E9479
:10090000D11D609371028AE090E062E070E00E9485
:1009100006089B01AC01C801B7010E94D11DCA01A4
:10092000B9012AE030E040E050E00E94D11D609320
:1009300072028AE090E063E070E00E9406089B018A
:10094000AC01C801B7010E94D11DCA01B9012AE05A
:1009500030E040E050E00E94D11D609373028AE0D5
:1009600090E064E070E00E9406089B01AC01C801C1
:10097000B7010E94D11DCA01B9012AE030E040E070
:1009800050E00E94D11D60937402B6C180918F0225
:1009900090919002A0919102B091920284179507D4
:1009A000A607B70709F4A8C140938F02509390029D
:1009B00060939102709392028AE090E060E070E0B0
:1009C0000E9406089B01AC01C801B7010E94D11D1D
:1009D000CA01B9012AE030E040E050E00E94D11D98
:1009E000609375028AE090E061E070E00E94060882
:1009F0009B01AC01C801B7010E94D11DCA01B90118
:100A00002AE030E040E050E00E94D11D6093760281
:100A10008AE090E062E070E00E9406089B01AC0171
:100A2000C801B7010E94D11DCA01B9012AE030E016
:100A300040E050E00E94D11D609377028AE090E090
:100A400063E070E00E9406089B01AC01C801B70199
:100A50000E94D11DCA01B9012AE030E040E050E017
:100A60000E94D11D609378028AE090E064E070E01B
:100A70000E9406089B01AC01C801B7010E94D11D6C
:100A8000CA01B9012AE030E040E050E00E94D11DE7
:100A90006093790231C18091930290919402A09168
:100AA0009502B091960284179507A607B70709F437
:100AB00023C14093930250939402609395027093E4
:100AC00096028AE090E060E070E00E9406089B01D8
:100AD000AC01C801B7010E94D11DCA01B9012AE0C9
:100AE00030E040E050E00E94D11D60937A028AE03D
:100AF00090E061E070E00E9406089B01AC01C80133
:100B0000B7010E94D11DCA01B9012AE030E040E0DE
:100B100050E00E94D11D60937B028AE090E062E089
:100B200070E00E9406089B01AC01C801B7010E9459
:100B3000D11DCA01B9012AE030E040E050E00E9436
:100B4000D11D60937C028AE090E063E070E00E9437
:100B500006089B01AC01C801B7010E94D11DCA0162
:100B6000B9012AE030E040E050E00E94D11D6093DE
:100B70007D028AE090E064E070E00E9406089B013C
:100B8000AC01C801B7010E94D11DCA01B9012AE018
:100B900030E040E050E00E94D11D60937E02ACC086
:100BA0008091A20290E0A0E0B0E084179507A6072C
:100BB000B70709F4A1C04093A2028AE090E060E088
:100BC00070E00E9406089B01AC01C801B7010E94B9
:100BD000D11DCA01B9012AE030E040E050E00E9496
:100BE000D11D60937F028AE090E061E070E00E9496
:100BF00006089B01AC01C801B7010E94D11DCA01C2
:100C0000B9012AE030E040E050E00E94D11D60933D
:100C1000800272C08091A30290E0A0E0B0E084174F
:100C20009507A607B70709F467C04093A3028AE0B7
:100C300090E060E070E00E9406089B01AC01C801F2
:100C4000B7010E94D11DCA01B9012AE030E040E09D
:100C500050E00E94D11D609381028AE090E061E043
:100C600070E00E9406089B01AC01C801B7010E9418
:100C7000D11DCA01B9012AE030E040E050E00E94F5
:100C8000D11D6093820238C08091A40290E0A0E060
:100C9000B0E084179507A607B70771F14093A40247
:100CA0008AE090E060E070E00E9406089B01AC01E1
:100CB000C801B7010E94D11DCA01B9012AE030E084
:100CC00040E050E00E94D11D609383028AE090E0F2
:100CD00061E070E00E9406089B01AC01C801B70109
:100CE0000E94D11DCA01B9012AE030E040E050E085
:100CF0000E94D11D609384021F910F91FF90EF908D
:100D000008954091A20250E060E070E088E00E9407
:100D100092024091A30250E060E070E089E00E94FE
:100D200092024091A40250E060E070E08AE00E94EC
:100D3000920240918B0250918C0260918D027091D1
:100D40008E0280E00E94920240918F0250919002A8
:100D5000609191027091920281E00E949202409112
:100D6000930250919402609195027091960282E0F4
:100D70000E949202409197025091980260919902CC
:100D800070919A0283E00E94920240919B025091DE
:100D90009C0260919D0270919E0284E00E949202EA
:100DA000089510925502109254023898ECE7F0E042
:100DB0001082808180648083EAE7F0E08081876030
:100DC000808380818062808310927B008081806834
:100DD000808380818860808380818064808308959F
:100DE000809154029091550221E082379207B0F52C
:100DF00021E08037920708F06FC081389105E0F458
:100E00008F37910508F074C08734910509F46EC0DE
:100E10008834910540F48332910509F465C0C89780
:100E200009F078C055C08F34910509F46BC08E3637
:100E3000910509F06FC04AC0803C910548F48E3B93
:100E4000910508F047C0803B910509F063C05CC084
:100E50008A509140029708F05DC04CC022E08C3C63
:100E60009207D0F422E08A3C920708F051C022E0B9
:100E70008832920709F440C022E08932920730F4A8
:100E8000835A9140029708F045C040C08A59924069
:100E9000029708F03FC022C023E0873C920788F405
:100EA00023E0853C920760F523E08E32920731F112
:100EB00023E08E32920770F181579340029750F5EC
:100EC0000FC08A5D9340029728F50CC08BE208950D
:100ED00086E7089587E0089588E0089589E00895F9
:100EE00083E6089585E608958EE608958DE20895D7
:100EF00084E0089585E0089586E0089580E70895E8
:100F000082E7089581E0089582E0089583E00895DE
:100F10008BE6089580E008952091540230915502A7
:100F2000C90108951F920F920FB60F9211241F93BB
:100F30002F933F934F935F936F937F938F939F93E1
:100F4000AF93BF93CF93DF93EF93FF931FB7F894C3
:100F5000C0917800D091790080914E0290914F021B
:100F60008C1B9D0B0196039770F59E01442737FD5E
:100F70004095542F8091500290915102A0915202BD
:100F8000B0915302280F391F4A1F5B1F2093500254
:100F900030935102409352025093530280914D027C
:100FA000813369F4CA01B90122E330E040E050E046
:100FB0000E94D11D309355022093540204C08F5FCC
:100FC00080934D020AC0109250021092510210926A
:100FD00052021092530210924D02D0934F02C093CE
:100FE0004E021FBFFF91EF91DF91CF91BF91AF9163
:100FF0009F918F917F916F915F914F913F912F9131
:101000001F910F900FBE0F901F901895CF92DF92F7
:10101000EF92FF920F931F93CF93DF936C01EB013D
:1010200091E0E92EF12C012D112D17C0C0FF0BC04E
:101030009601442737FD4095542FC801B7010E94FF
:101040008B1D7B018C01D595C795C601889F6001DA
:10105000899FD00C989FD00C1124209739F7B701A5
:10106000C801DF91CF911F910F91FF90EF90DF901A
:10107000CF9008951092B30285E68093720308958D
:101080000E9470091092B30285E68093720308955E
:10109000FF920F931F93CF93DF93182F092FF62EF4
:1010A0008EEB0E9438018FEE0E9438018F2D0E9436
:1010B0003801212F302FC901EC010F2D10E005C0A0
:1010C000899108270E9438011F5F1F15C8F3802FE0
:1010D0000E943801DF91CF911F910F91FF900895E9
:1010E0001092B30283E08093B40281E08093B50252
:1010F00084E08093B60283EB92E064E00E944808AB
:1011000008958091B7028823D9F50E946901049758
:10111000BCF105C00E946901892B09F487C00E94B7
:101120001B018E3BB9F70E941B018F3E01F50E9407
:101130001B018093B7020E941B01982F80938804A3
:1011400081E08093B202992319F0913081F406C0B6
:1011500084E080936D0383EB92E005C081EB809384
:101160006D0388EB92E09093B1028093B00290916E
:10117000B70280916D03981719F01092B70254C00E
:101180008091B702882369F451C00E941B0190919D
:10119000B202E92FF0E0E857FC4F80839F5F909305
:1011A000B2020E946901892B31F09091B2028091C4
:1011B000B702891750F78091880480938803309193
:1011C000B702A32FB0E08091B20290E00197A81778
:1011D000B90761F5232F90E007C0E92FF0E0E85749
:1011E000FC4F808128279F5F9317B8F320938703D4
:1011F000E8E8F3E0AE0FBF1F8C91281781F440910F
:101200006D038091B0029091B102BF0150E00E9445
:101210002A1E1092B70281E08093B20208951092C4
:10122000B70281E08093B20280E0089580E00895E3
:10123000EF92FF920F931F930E94800960936E03B9
:1012400070936F0380937003909371030E948108E1
:1012500020916E0330916F034091700350917103A0
:10126000882391F02093AC023093AD024093AE02FC
:101270005093AF0280918804882311F40E94700873
:1012800081E08093560227C08091AC029091AD021C
:10129000A091AE02B091AF0279018A01E81AF90A71
:1012A0000A0B1B0BD801C701E0926903F0926A0395
:1012B00000936B0310936C03815D9740A040B04096
:1012C00050F02093AC023093AD024093AE025093A5
:1012D000AF02109256021F910F91FF90EF90089568
:1012E000E0EBF0E0808183608083E1EBF0E08081DF
:1012F00084608083E0E7F0E08081816080830895EE
:101300008FB7F89420915B0230915C0240915D02AE
:1013100050915E028FBFB901CA0108951F920F92CA
:101320000FB60F9211242F933F934F938F939F9358
:10133000AF93BF934FB7F89480915B0290915C029A
:10134000A0915D02B0915E0230915F020196A11DF5
:10135000B11D232F2D5F2D3720F02D570196A11D94
:10136000B11D20935F0280935B0290935C02A09377
:101370005D02B0935E028091570290915802A09155
:101380005902B0915A020196A11DB11D80935702D6
:1013900090935802A0935902B0935A024FBFBF9145
:1013A000AF919F918F914F913F912F910F900FBED1
:1013B0000F901F90189560914D0370914E0380918E
:1013C0004F039091500320E030E040EA50E40E9447
:1013D000991A882334F48091B9049091BA048160F9
:1013E00005C08091B9049091BA048E7F9093BA049D
:1013F0008093B90420918A04822F8350823010F0A8
:10140000263031F48091B9049091BA04886005C007
:101410008091B9049091BA04877F9093BA04809325
:10142000B904253031F48091B9049091BA048062F6
:1014300005C08091B9049091BA048F7D9093BA044D
:101440008093B9046091D5027091D6028091D70241
:101450009091D80220E030E040EA50E40E94391A2E
:10146000181634F48091B9049091BA04916005C0C3
:101470008091B9049091BA049E7F9093BA048093AE
:10148000B90460913D0370913E0380913F039091B8
:1014900040032091390330913A0340913B0350912E
:1014A0003C030E948D1920E030E040E050E00E94B3
:1014B000991A882334F48091B9049091BA04926007
:1014C00005C08091B9049091BA049D7F9093BA04AD
:1014D0008093B904089580919404823009F0A1C0EA
:1014E00080919704823009F07FC0209193042830C6
:1014F00009F450C0293018F4253000F134C02031EF
:1015000038F42B3008F046C02A3009F062C004C01D
:10151000203109F05EC04AC080919604873018F4EB
:101520002BE434E080C08091B9049091BA048064C7
:101530009093BA048093B9048DE06FC090919604A3
:10154000892F88528231A0F0892F8E508A3138F449
:1015500084E6289F90011124235A3F4F64C099507C
:101560009530E8F02BC0809196048852823138F48F
:1015700084E6289F90011124225A3F4F54C0809145
:10158000B9049091BA0480649093BA048093B9042A
:1015900082E743C0809196048950853078F484E6D0
:1015A000289F90011124245A3F4F3DC080919604FA
:1015B0008950853018F42CE936E035C08091B904A3
:1015C0009091BA0480649093BA048093B9048AE736
:1015D00024C08091B9049091BA0480649093BA04B5
:1015E0008093B9048FE619C08823D9F490919304AD
:1015F0009431B8F480918A04813029F484E6989F6C
:101600009001112410C08091B9049091BA048064B3
:101610009093BA048093B9048EE88093890480E0A3
:10162000089520E030E0809193048093920410921A
:1016300093041092940480919604809395041092E0
:1016400096041092970430938D0420938C0481E0CB
:10165000089580918C0490918D0423E08A31920743
:1016600009F4C8C243E08B31940780F551E087321A
:10167000950798F421E08432920708F087C28C35F0
:10168000910508F4B1C48F35910508F463C2805CFC
:101690009040039708F0A8C46BC241E08F3E9407C6
:1016A00058F451E08C3E950708F08CC28858914060
:1016B000039708F099C478C222E08235920709F4B2
:1016C0008FC2865B924009F08FC48FC255E080378D
:1016D000950709F494C225E081379207E8F444E0C5
:1016E0008B34940709F48EC054E08C34950750F481
:1016F00023E08C37920709F499C38458934009F08A
:1017000073C42CC054E0883A950709F4C4C38C50C4
:10171000954009F069C4FAC346E08C39940709F48E
:1017200042C456E08D39950750F425E0843D920778
:1017300009F4D6C28853964009F056C412C357E044
:101740008830950709F435C427E08C36920709F4F0
:101750003EC4845A964009F047C429C481E080936E
:10176000A50280E197E2A0E0B0E08093A60290930A
:10177000A702A093A802B093A90288E58093A202D1
:101780008093A3028093A40288E39BE5A1E0B0E0EC
:1017900080938B0290938C02A0938D02B0938E0263
:1017A00080938F0290939002A0939102B093920243
:1017B0008093930290939402A0939502B093960223
:1017C00088E396E5ACE4B5E08093970290939802A5
:1017D000A0939902B0939A0280939B0290939C02EB
:1017E000A0939D02B0939E0284E680939F02809313
:1017F000A0028093A1028FEF9FEF9093AB028093A2
:10180000AA02FEC380919504805580938F04833093
:1018100009F49AC0843038F4813009F451C0823020
:1018200008F06BC00AC0853009F4EEC0853008F4BA
:10183000D4C0863009F0D8C330C1109298041092F9
:10184000990410929A0410929B0481E090E0909386
:101850009D0480939C0410929E0410929F04109209
:10186000A0041092A1049093A3048093A204109268
:10187000A4041092A5041092A6041092A7049093B9
:10188000A9048093A8041092AA041092AB041092A9
:10189000AC041092AD049093AF048093AE04109208
:1018A000B0041092B1041092B2041092B304909359
:1018B000B5048093B4041092B6041092B70447C1E3
:1018C00082E090E0A0E0B0E08093980490939904C7
:1018D000A0939A04B0939B0483E090E0A0E0B0E072
:1018E00080939E0490939F04A093A004B093A104BE
:1018F00084E090E0A0E0B0E04EC181E090E0A0E0A4
:10190000B0E08093980490939904A0939A04B093C4
:101910009B0481E090E090939D0480939C0410923E
:101920009E0410929F041092A0041092A104909320
:10193000A3048093A2041092A4041092A504109210
:10194000A6041092A704FAC18AE190E0A0E0B0E0FA
:101950008093980490939904A0939A04B0939B0465
:1019600021E030E030939D0420939C0484E190E0DA
:10197000A0E0B0E080939E0490939F04A093A00405
:10198000B093A1043093A3042093A20483E190E0D8
:10199000A0E0B0E08093A4049093A504A093A604D3
:1019A000B093A70488EE93E09093A9048093A804D1
:1019B0008EE090E0A0E0B0E08093AA049093AB04A6
:1019C000A093AC04B093AD043093AF042093AE0465
:1019D0008EE190E0A0E0B0E0A8C08AE190E0A0E055
:1019E000B0E08093980490939904A0939A04B093E4
:1019F0009B0421E030E030939D0420939C0484E11B
:101A000090E0A0E0B0E016C08DE190E0A0E0B0E092
:101A10008093980490939904A0939A04B0939B04A4
:101A200021E030E030939D0420939C0485E190E018
:101A3000A0E0B0E080939E0490939F04A093A00444
:101A4000B093A1043093A3042093A20482E190E018
:101A5000A0E0B0E08093A4049093A504A093A60412
:101A6000B093A70488EE93E09093A9048093A80410
:101A70008EE090E0A0E0B0E08093AA049093AB04E5
:101A8000A093AC04B093AD043093AF042093AE04A4
:101A90008FE090E0A0E0B0E048C08DE190E0A0E0F1
:101AA000B0E08093980490939904A0939A04B09323
:101AB0009B0421E030E030939D0420939C0485E258
:101AC00090E0A0E0B0E080939E0490939F04A093E8
:101AD000A004B093A1043093A3042093A20486E24F
:101AE00090E0A0E0B0E08093A4049093A504A093BC
:101AF000A604B093A7043093A9042093A80489E115
:101B000090E0A0E0B0E08093AA049093AB04A0938F
:101B1000AC04B093AD042AE030E03093AF042093DE
:101B2000AE0488E190E0A0E0B0E08093B004909330
:101B3000B104A093B204B093B3043093B5042093DE
:101B4000B4048BE28093B60481E38093B7041092CF
:101B5000B80456C28091950490E0A0E0B0E0809374
:101B6000980490939904A0939A04B0939B0448C25C
:101B70008091950490E0A0E0B0E080939E04909363
:101B80009F04A093A004B093A1043AC2809195044D
:101B900090E0A0E0B0E08093A4049093A504A0930B
:101BA000A604B093A7042CC28091950490E0A0E015
:101BB000B0E08093AA049093AB04A093AC04B093DC
:101BC000AD041EC28091950490E0A0E0B0E0809347
:101BD000B0049093B104A093B204B093B30410C2C4
:101BE000809195048093B6040BC2809195048093F4
:101BF000B70406C2809195048093B80401C2809115
:101C000095048B30A1F18C3030F4893051F08A305A
:101C100009F0F6C119C08C30E9F18D3009F0F0C13E
:101C20004CC080919C0490919D049C0153E0220F34
:101C3000331F5A95E1F7880F991F280F391F3093EA
:101C40009D0420939C04DCC18091A2049091A30484
:101C50009C01B3E0220F331FBA95E1F7880F991F5B
:101C6000280F391F3093A3042093A204C9C1809187
:101C7000A8049091A9049C01F3E0220F331FFA9568
:101C8000E1F7880F991F280F391F3093A90420937B
:101C9000A804B6C18091AE049091AF049C0173E09A
:101CA000220F331F7A95E1F7880F991F280F391FEC
:101CB0003093AF042093AE04A3C18091B4049091FB
:101CC000B5049C0153E0220F331F5A95E1F7880FAA
:101CD000991F280F391F3093B5042093B40490C185
:101CE000809195048B30E1F08C3030F4893051F0E4
:101CF0008A3009F085C10DC08C3029F18D3009F092
:101D00007FC128C080919C0490919D0424E630E01E
:101D100040C08091A2049091A30424E630E04CC01E
:101D20008091A8049091A90424E630E0AC01429F80
:101D3000C001439F900D529F900D11249093A904D0
:101D40008093A8045DC18091AE049091AF0424E615
:101D500030E04CC08091B4049091B50424E630E0AA
:101D600058C0809195048B30A1F18C3030F48930CB
:101D700051F08A3009F044C119C08C3089F18D309E
:101D800009F03EC140C080919C0490919D0428EED2
:101D900033E0AC01429FC001439F900D529F900DD4
:101DA000112490939D0480939C042AC18091A204E5
:101DB0009091A30428EE33E0AC01429FC001439F01
:101DC000900D529F900D11249093A3048093A20430
:101DD00017C18091A8049091A90428EE33E0A6CF02
:101DE0008091AE049091AF0428EE33E0AC01429FA5
:101DF000C001439F900D529F900D11249093AF040A
:101E00008093AE04FDC08091B4049091B50428EE97
:101E100033E0AC01429FC001439F900D529F900D53
:101E200011249093B5048093B404EAC08091950482
:101E30008B30E1F08C3030F4893051F08A3009F089
:101E4000DFC00DC08C30C9F08D3009F0D9C01CC086
:101E500080919C0490919D046AE070E06FC0809135
:101E6000A2049091A3046AE070E075C08091A80478
:101E70009091A9046AE070E07BC08091AE049091DB
:101E8000AF046AE070E081C08091B4049091B50421
:101E90006AE070E034C0809195048B30E1F08C30C2
:101EA00030F4893051F08A3009F0AAC00DC08C306E
:101EB000C9F08D3009F0A4C01CC080919C049091A1
:101EC0009D0464E670E03AC08091A2049091A3045E
:101ED00064E670E040C08091A8049091A90464E693
:101EE00070E046C08091AE049091AF0464E670E06B
:101EF0004CC08091B4049091B50464E670E00E94F7
:101F0000AA1D7093B5046093B4047AC080919504BF
:101F10008B3041F18C3030F4893051F08A3009F047
:101F20006FC013C08C3059F18D3009F069C034C0D6
:101F300080919C0490919D0468EE73E00E94AA1D1C
:101F400070939D0460939C045BC08091A204909167
:101F5000A30468EE73E00E94AA1D7093A30460932B
:101F6000A2044EC08091A8049091A90468EE73E089
:101F70000E94AA1D7093A9046093A80441C0809197
:101F8000AE049091AF0468EE73E00E94AA1D7093B6
:101F9000AF046093AE0434C08091B4049091B50452
:101FA00068EE73E0ACCF83E080938A0429C086E0BA
:101FB0000FC01092A5028091B9049091BA048B7F52
:101FC0009093BA048093B90410928A0419C084E0F3
:101FD00080938A048091B9049091BA0488609093A8
:101FE000BA048093B9040CC08091B9049091BA04EA
:101FF00080689093BA048093B90483EF8093890436
:1020000010928D0410928C04089580918B04882383
:1020100009F062C130918E04353609F428C1363694
:1020200084F43B3209F450C03C3224F43A3008F0D6
:1020300042C17CC03D3209F458C0333609F03BC17F
:10204000D5C0303709F4E7C031373CF43B3609F4EA
:102050003EC13E3609F02FC11DC0323709F41FC101
:10206000363709F028C180918A04882341F481E041
:1020700080938A04109293041092940428C1809152
:10208000B9049091BA0480649093BA048093B9041F
:1020900085E6A9C080918A04813059F48091940426
:1020A000823039F480938A04109296041092970437
:1020B0000EC18091B9049091BA0480649093BA04DF
:1020C0008093B90486E68FC080918A04833011F42E
:1020D0008DE010C08091B9049091BA04806490930F
:1020E000BA048093B90488E67EC080918A04833064
:1020F00091F488E08093930492E09093940480910B
:10210000950480939604909397040E946B0A882309
:1021100009F4B6C0B2C08091B9049091BA04806449
:102120009093BA048093B90489E65DC090918A04C3
:10213000913021F0923009F04CC026C08091940477
:10214000882329F43093930490939404C0C0813081
:1021500069F4809193042AE0829FC0011124380F12
:102160003093930482E080939404B1C0823008F4E9
:10217000AEC08091B9049091BA0480649093BA047F
:102180008093B90483E82FC080919704882321F4B9
:102190003093960481E00CC0813069F480919604FC
:1021A0002AE0829FC0011124380F3093960482E008
:1021B000809397048CC0823008F489C08091B90460
:1021C0009091BA0480649093BA048093B90484E82F
:1021D0000AC08091B9049091BA0480649093BA04C3
:1021E0008093B90487E68093890471C080918A0442
:1021F000882309F46CC010929304109294041092F6
:1022000096041092970410928A048091B9049091D8
:10221000BA04807C58C080918A04843019F08630DA
:10222000D9F40DC08091B9049091BA04877F90933E
:10223000BA048093B90485E080938A0448C08091F1
:10224000B9049091BA04877F84609093BA04809314
:10225000B90410928A043BC08091B9049091BA04E9
:1022600080649093BA048093B9048AE6BCCF0E943C
:102270006B0A882329F010928A040E94290B27C038
:1022800080918904882319F58091B9049091BA044A
:1022900080649093BA048093B9048DE8A4CF8091B0
:1022A000B9049091BA048F739093BA048093B904DF
:1022B000109289040CC084EF809389048091B90442
:1022C0009091BA0480689093BA048093B9041092F4
:1022D0008E0481E080938B048091A502813099F473
:1022E0008091A6029091A702A091A802B091A902A4
:1022F0000197A109B1098093A6029093A702A09328
:10230000A802B093A9028091A6029091A702A09181
:10231000A802B091A9020197A105B10551F410924C
:10232000A6021092A7021092A8021092A90210927F
:10233000A5020895962F6230C1F0633028F4662319
:1023400051F0613029F40CC06330A1F06430B9F071
:1023500061E070E018C060919C0470919D0413C00E
:102360006091A2047091A3040EC06091A8047091C2
:10237000A90409C06091AE047091AF0404C06091DB
:10238000B4047091B504E82FF0E0EA33F10508F0E9
:102390009DC3EC5CFF4FEE0FFF1F0590F491E02D05
:1023A0000994983008F492C385C3953018F493309B
:1023B00028F409C0983008F07DC30AC028E336E548
:1023C0004CE455E087C328E33BE541E050E082C39D
:1023D00024E630E040E050E07DC380918904282F5E
:1023E00030E04FC06091490370914A0380914B03E4
:1023F00090914C0320E13EE040E050E00E94D11D6E
:10240000C901DA0122C06091490370914A038091A9
:102410004B0390914C032CE330E040E050E00E94ED
:10242000D11DCA01B90108C06091490370914A03E6
:1024300080914B0390914C032CE330E040E050E05E
:102440000E94D11DAC01CB01DA019C01AD0142C358
:1024500080919C0490919D0413C08091A20490915E
:10246000A3040EC08091A8049091A90409C0809192
:10247000AE049091AF0404C08091B4049091B5046F
:102480009C0140E050E026C380E090E00E941D1BCC
:102490002091B9023091BA024091BB025091BC0226
:1024A000B4C280E090E00E941D1B2091BD023091DB
:1024B000BE024091BF025091C002A7C280E090E0EE
:1024C0000E941D1B2091C1023091C2024091C302A3
:1024D0005091C4029AC280E090E00E941D1B20919E
:1024E000C5023091C6024091C7025091C8028DC208
:1024F00080E090E00E941D1B2091CD023091CE0221
:102500004091CF025091D00280C280E090E00E94C2
:102510001D1B2091D1023091D2024091D3025091E3
:10252000D40273C280E090E02091D9023091DA02A7
:102530004091DB025091DC020AC080E090E02091E3
:10254000DD023091DE024091DF025091E0020E94F4
:102550008B1D5FC280E090E00E941D1B2091E10274
:102560003091E2024091E3025091E4024EC280E0D9
:1025700090E02091E9023091EA024091EB02509103
:10258000EC02E5CF80E090E00E941D1B2091C90283
:102590003091CA024091CB025091CC0236C280E009
:1025A00090E00E941D1B2091F5023091F6024091AF
:1025B000F7025091F80229C280E090E00E941D1BB2
:1025C0002091510330915203409153035091540391
:1025D0001CC280E090E00E941D1B2091D50230912A
:1025E000D6024091D7025091D8020FC280E090E00D
:1025F0000E941D1B2091E5023091E6024091E70206
:102600005091E80202C280E090E00E941D1B2091E0
:10261000ED023091EE024091EF025091F002F5C1CF
:1026200080E090E00E941D1B2091F1023091F202A7
:102630004091F3025091F402E8C180E090E00E94E2
:102640001D1B2091F9023091FA024091FB0250913A
:10265000FC02DBC180E090E00E941D1B2091FD0286
:102660003091FE024091FF0250910003CEC180E004
:1026700090E02091490330914A0340914B035091DF
:102680004C0365CF80E090E00E941D1B20914D031C
:1026900030914E0340914F0350915003B6C180E0FA
:1026A00090E020915503309156034091570350918B
:1026B00058034DCF80E090E00E941D1B20915903EC
:1026C00030915A0340915B0350915C039EC180E0BE
:1026D00090E00E941D1B20915D0330915E034091AC
:1026E0005F035091600391C180E090E00E941D1B48
:1026F0002091610330916203409163035091640320
:1027000084C180E090E00E941D1B20916503309100
:102710006603409167035091680377C180E090E0C1
:102720000E941D1B2091010330910203409103037D
:10273000509104036AC180E090E00E941D1B20912B
:10274000390330913A0340913B0350913C035DC102
:1027500080E090E00E941D1B2091410330914203D4
:10276000409143035091440350C180E090E00E94A7
:102770001D1B2091090330910A0340910B035091D6
:102780000C0343C180E090E00E941D1B20911103C7
:1027900030911203409113035091140336C180E02D
:1027A00090E00E941D1B2091190330911A03409163
:1027B0001B0350911C0329C180E090E00E941D1B67
:1027C000209121033091220340912303509124034F
:1027D0001CC180E090E00E941D1B209129033091D4
:1027E0002A0340912B0350912C030FC180E090E00D
:1027F0000E941D1B2091310330913203409133031D
:102800005091340302C1892F8550833088F4609140
:1028100005037091060380910703909108032091AE
:1028200001033091020340910303509104032CC132
:10283000953008F03FC180E090E00E941D1B209180
:102840000503309106034091070350910803DDC052
:10285000892F8550833088F460913D0370913E0349
:1028600080913F03909140032091390330913A03C6
:1028700040913B0350913C0307C1953008F01AC1C9
:1028800080E090E00E941D1B20913D0330913E03AB
:1028900040913F0350914003B8C0892F8550833049
:1028A00088F460910D0370910E0380910F03909155
:1028B00010032091090330910A0340910B035091BA
:1028C0000C03E2C0953008F0F5C080E090E00E9473
:1028D0001D1B20910D0330910E0340910F03509169
:1028E000100393C0892F8550833088F4609145038D
:1028F00070914603809147039091480320914103D2
:10290000309142034091430350914403BDC0953040
:1029100008F0D0C080E090E00E941D1B209145038C
:102920003091460340914703509148036EC0892F70
:102930008550833088F4609115037091160380915F
:1029400017039091180320911103309112034091C5
:1029500013035091140398C0953008F0ABC080E089
:1029600090E00E941D1B20911503309116034091A9
:1029700017035091180349C0892F8550833088F47C
:1029800060911D0370911E0380911F03909120039D
:102990002091190330911A0340911B0350911C039D
:1029A00073C0953008F086C080E090E00E941D1B47
:1029B00020911D0330911E0340911F03509120036D
:1029C00024C0892F8550833088F46091250370914D
:1029D00026038091270390912803209121033091B1
:1029E000220340912303509124034EC0953008F0F8
:1029F00061C080E090E00E941D1B20912503309172
:102A0000260340912703509128030E9493180E94A7
:102A1000BD169B01AC015EC0892F8550833088F4C0
:102A200060912D0370912E0380912F0390913003BC
:102A30002091290330912A0340912B0350912C03BC
:102A400023C09530B8F580E090E00E941D1B2091D6
:102A50002D0330912E0340912F0350913003D5CF99
:102A6000892F85508330B8F4609135037091360317
:102A700080913703909138032091310330913203D4
:102A800040913303509134030E948D1920E030E0CF
:102A900048EC52E4BACF953068F480E090E00E94B0
:102AA0001D1B20913503309136034091370350911F
:102AB0003803ABCF8091B9049091BA0480689093A9
:102AC000BA048093B90482EF8093890420E030E057
:102AD00040E050E0B901CA01089580918F048093CD
:102AE000A20220918A04253038F4233048F42130A2
:102AF00061F0223008F504C0253079F1263009F55F
:102B0000809192048093A30228C08091940488232A
:102B100019F41092A30235C0813039F480919304E6
:102B20002AE0829FC001112404C0823051F58091B7
:102B300093048093A30225C0809193048093A30201
:102B40001CC08091B9049091BA0480689093BA0433
:102B50008093B90481EF80938904253038F42330C1
:102B600048F4213071F0223040F404C0253041F1A6
:102B70002630D1F4809195040FC08091970488236A
:102B800019F41092A4021CC0813049F4809196047B
:102B90002AE0829FC00111248093A40211C08230D8
:102BA00079F480919604F8CF8091B9049091BA0499
:102BB00080689093BA048093B90481EF809389046C
:102BC0008091980460E00E949A1160938B02709348
:102BD0008C0280938D0290938E0280919E0461E01E
:102BE0000E949A1160938F027093900280939102D9
:102BF000909392028091A40462E00E949A116093E3
:102C00009302709394028093950290939602809120
:102C1000AA0463E00E949A1160939702709398024D
:102C20008093990290939A028091B00464E00E948C
:102C30009A1160939B0270939C0280939D029093E3
:102C40009E028091B60465E00E949A1160939F02F3
:102C50008091B70466E00E949A116093A00280916F
:102C6000B80467E00E949A116093A1029091B904A0
:102C70008091BA049093AA028093AB0291FF03C0A3
:102C800081E08093A50208950E9405100E94DB094F
:102C90008091A502882311F40E946D150E9481067F
:102CA00008951092890410928A0481E080938B0425
:102CB00010928E0410928F0410929004109291043E
:102CC000109292041092930410929404109295041E
:102CD000109296041092970410928D0410928C0416
:102CE000109298041092990410929A0410929B04E6
:102CF00081E090E090939D0480939C0410929E0448
:102D000010929F041092A0041092A1049093A30427
:102D10008093A2041092A4041092A5041092A60419
:102D20001092A7049093A9048093A8041092AA0477
:102D30001092AB041092AC041092AD049093AF04C7
:102D40008093AE041092B0041092B1041092B204B9
:102D50001092B3049093B5048093B4041092B60417
:102D60001092B7041092B8041092BA041092B904E9
:102D70000E9497010E94D1060895EF92FF920F934F
:102D80001F937B018C0120E030E040E05FE40E9473
:102D9000691A88238CF0C801B70120E030E040E0D8
:102DA0005FE40E9435180E94C91A9B01AC012050B3
:102DB00030404040504806C0C801B7010E94C91ABF
:102DC0009B01AC01B901CA011F910F91FF90EF90D7
:102DD0000895A0E0B0E0EFEEF6E10C94F31DDC0105
:102DE0002B01FA019C91923008F439C1EB018881E2
:102DF000823008F433C1943069F4843009F02FC173
:102E000011969C9111978981981709F428C1A0E027
:102E1000B1E025C1843009F421C18230A9F4923097
:102E200009F01DC19A01AD0188E0EA010990AE01E7
:102E3000E90109929E018150C1F7E2018981119651
:102E40009C918923818308C1923009F407C11296AD
:102E50002D903C901397EB018A819B811496AD9045
:102E6000BD90CD90DC901797EC80FD800E811F8186
:102E70009101281B390BB90137FF04C0662777275A
:102E8000621B730B603271050CF061C012161306E1
:102E90006CF537014801062E04C096948794779408
:102EA00067940A94D2F721E030E040E050E004C09B
:102EB000220F331F441F551F6A95D2F7215030400F
:102EC000404050402E213F21402351232115310500
:102ED0004105510521F021E030E040E050E079016A
:102EE0008A01E628F728082919293CC0232BD1F1AB
:102EF000260E371E35014601062E04C0969487948F
:102F0000779467940A94D2F721E030E040E050E0F3
:102F100004C0220F331F441F551F6A95D2F721505A
:102F20003040404050402A213B214C215D21211559
:102F300031054105510521F021E030E040E050E04D
:102F400059016A01A628B728C828D9280BC08215BC
:102F500093052CF01C01AA24BB24650103C0EE24B8
:102F6000FF24870111969C91D20111968C9198179C
:102F700009F445C0992339F0A80197012A193B09A2
:102F80004C095D0906C0A60195012E193F09400BA9
:102F9000510B57FD08C0118233822282248335836E
:102FA000468357831DC081E0818333822282882734
:102FB0009927DC01821B930BA40BB50B84839583AB
:102FC000A683B7830DC0220F331F441F551F2483D0
:102FD00035834683578382819381019793838283CC
:102FE0002481358146815781DA01C9010197A10900
:102FF000B1098F5F9F4FAF4FBF4328F30BC0918341
:1030000033822282EA0CFB1C0C1D1D1DE482F5821A
:103010000683178383E0808324813581468157812D
:1030200057FF1AC0C901AA2797FDA095BA2F817032
:103030009070A070B0705695479537952795822B64
:10304000932BA42BB52B84839583A683B78382818E
:103050009381019693838283DF0101C0D201CD0168
:10306000CDB7DEB7E2E10C940F1EA0E2B0E0EBE3D7
:10307000F8E10C94FF1D69837A838B839C832D83F5
:103080003E834F835887E9E0EE2EF12CEC0EFD1EB7
:10309000CE010196B7010E94BA1C8E010F5E1F4F30
:1030A000CE010596B8010E94BA1C8A8991E0892751
:1030B0008A8BC701B801AE01475E5F4F0E94E916D7
:1030C0000E94E51BA096E6E00C941B1EA0E2B0E077
:1030D000ECE6F8E10C94FF1D69837A838B839C8373
:1030E0002D833E834F835887F9E0EF2EF12CEC0EB1
:1030F000FD1ECE010196B7010E94BA1C8E010F5E23
:103100001F4FCE010596B8010E94BA1CC701B80135
:10311000AE01475E5F4F0E94E9160E94E51BA09634
:10312000E6E00C941B1EA0E2B0E0E9E9F8E10C94A3
:10313000F31D69837A838B839C832D833E834F8326
:103140005887CE010196BE01675F7F4F0E94BA1C6F
:10315000CE010596BE016F5E7F4F0E94BA1C998515
:10316000923088F089898230C8F0943019F4823026
:1031700051F404C0843029F4923081F480E091E06D
:10318000C6C0923049F420E09A858A89981321E0DC
:103190002A87CE010996BBC0823049F420E09A8587
:1031A0008A89981321E02A8BCE014196B0C02D84E4
:1031B0003E844F8458886D887E888F88988CEE2452
:1031C000FF248701AA24BB24650140E050E060E0B1
:1031D00070E0E0E0F0E0C10181709070892BE9F0CF
:1031E000E60CF71C081D191D9A01AB012A0D3B1DA9
:1031F0004C1D5D1D80E090E0A0E0B0E0E614F70417
:103200000805190520F481E090E0A0E0B0E0BA01E3
:10321000A901480F591F6A1F7B1FAA0CBB1CCC1C9D
:10322000DD1C97FE08C081E090E0A0E0B0E0A82A95
:10323000B92ACA2ADB2A3196E032F10549F0660C38
:10324000771C881C991C5694479437942794C3CFB5
:10325000FA85EA892B893C898B859C85280F391F43
:103260002E5F3F4F17C0CA0181709070892B61F0AB
:1032700016950795F794E79480E090E0A0E0B0E819
:10328000E82AF92A0A2B1B2B7695679557954795BF
:103290002F5F3F4F77FDE7CF0CC0440F551F661FD0
:1032A000771F17FD4160EE0CFF1C001F111F2150FE
:1032B0003040403090E0590790E0690790E479078A
:1032C00060F32B8F3C8FDB01CA018F779070A07069
:1032D000B07080349105A105B10561F447FD0AC0C5
:1032E000E114F1040105110529F0405C5F4F6F4FB7
:1032F0007F4F40781A8EFE1711F081E08A8F4D8F34
:103300005E8F6F8F78A383E0898FCE0149960E94EC
:10331000E51BA096E2E10C940F1EA8E1B0E0E3E902
:10332000F9E10C94FB1D69837A838B839C832D8345
:103330003E834F835887B9E0EB2EF12CEC0EFD1E37
:10334000CE010196B7010E94BA1C8E010F5E1F4F7D
:10335000CE010596B8010E94BA1C2985223008F4D6
:103360007EC03989323010F4B8017CC08A859A89D0
:1033700089278A87243011F0223031F4231709F08D
:103380006EC060E071E06EC0343039F41D861E8678
:103390001F86188A1C861B8604C0323021F484E004
:1033A0008987B7015FC02B853C858B899C89281B49
:1033B000390B3C872B87ED84FE840F851889AD88F7
:1033C000BE88CF88D88CEA14FB040C051D0540F498
:1033D000EE0CFF1C001F111F215030403C872B8733
:1033E00020E030E040E050E080E090E0A0E0B0E499
:1033F00060E070E0EA14FB040C051D0540F0282B8A
:10340000392B4A2B5B2BEA18FB080C091D09B695D2
:10341000A79597958795EE0CFF1C001F111F6F5FF6
:103420007F4F6F31710531F7DA01C9018F779070E5
:10343000A070B07080349105A105B10561F427FD3D
:103440000AC0E114F1040105110529F0205C3F4F89
:103450004F4F5F4F20782D873E874F87588BBE0197
:10346000675F7F4FCB010E94E51B6896EAE00C94F2
:10347000171EA8E1B0E0EFE3FAE10C94FF1D6983A9
:103480007A838B839C832D833E834F83588789E087
:10349000E82EF12CEC0EFD1ECE010196B7010E9424
:1034A000BA1C8E010F5E1F4FCE010596B8010E9417
:1034B000BA1C8985823040F08989823028F0C701A2
:1034C000B8010E94321D01C08FEF6896E6E00C94AF
:1034D0001B1EA8E1B0E0EFE6FAE10C94FF1D698342
:1034E0007A838B839C832D833E834F83588789E027
:1034F000E82EF12CEC0EFD1ECE010196B7010E94C4
:10350000BA1C8E010F5E1F4FCE010596B8010E94B6
:10351000BA1C8985823040F08989823028F0C70141
:10352000B8010E94321D01C08FEF6896E6E00C944E
:103530001B1EA8E1B0E0EFE9FAE10C94FF1D6983DE
:103540007A838B839C832D833E834F83588789E0C6
:10355000E82EF12CEC0EFD1ECE010196B7010E9463
:10356000BA1C8E010F5E1F4FCE010596B8010E9456
:10357000BA1C8985823040F08989823028F0C701E1
:10358000B8010E94321D01C081E06896E6E00C940B
:103590001B1EACE0B0E0EFECFAE10C94031E698373
:1035A0007A838B839C83CE010196BE016B5F7F4F34
:1035B0000E94BA1C8D81823061F1823050F18430DA
:1035C00021F48E81882351F12EC02F81388537FD5B
:1035D00020C06E812F3131051CF06623F9F023C025
:1035E0008EE190E0821B930B29853A854B855C85A3
:1035F00004C056954795379527958A95D2F7662347
:10360000B1F050954095309521953F4F4F4F5F4F0A
:103610000EC020E030E040E050E009C02FEF3FEF67
:103620004FEF5FE704C020E030E040E050E8B90130
:10363000CA012C96E2E00C941F1EA8E0B0E0E3E281
:10364000FBE10C94FB1D7B018C016115710581056B
:10365000910519F482E0898360C083E089838EE15B
:10366000C82ED12CDC82CB82ED82FE820F8318879C
:10367000C801B7010E94961BFC013197F7FF3BC0C0
:10368000222733272E1B3F0B57016801022E04C04F
:10369000D694C794B794A7940A94D2F740E050E028
:1036A00060E070E081E090E0A0E0B0E004C0880F4E
:1036B000991FAA1FBB1F2A95D2F70197A109B1092B
:1036C0008E219F21A023B1230097A105B10521F0F0
:1036D00041E050E060E070E04A295B296C297D29D7
:1036E0004D835E836F8378878EE190E08E1B9F0B06
:1036F0009C838B8312C0309781F00E2E04C0EE0C99
:10370000FF1C001F111F0A94D2F7ED82FE820F8367
:103710001887CE1ADF0ADC82CB821A82CE0101968C
:103720000E94E51B2896EAE00C94171EEF92FF9288
:103730000F931F937B018C0180E0E81680E0F80670
:1037400081E0080780E0180788F48FEFE816F1049D
:103750000105110531F028F088E090E0A0E0B0E02C
:1037600017C080E090E0A0E0B0E012C080E0E81672
:1037700080E0F80680E0080781E0180728F088E17B
:1037800090E0A0E0B0E004C080E190E0A0E0B0E014
:1037900020E230E040E050E0281B390B4A0B5B0B85
:1037A00004C016950795F794E7948A95D2F7F70128
:1037B000E85FFE4F8081281B310941095109C90189
:1037C0001F910F91FF90EF900895DF92EF92FF927B
:1037D0000F931F93FC01E480F58006811781D1804F
:1037E0008081823048F480E090E0A0E1B0E0E82AF7
:1037F000F92A0A2B1B2BA5C0843009F49FC0823004
:1038000021F4EE24FF24870105C0E114F104010531
:10381000110519F4E0E0F0E096C0628173819FEF3A
:10382000623879070CF05BC022E83FEF261B370BAC
:103830002A3131052CF020E030E040E050E02AC091
:10384000B801A701022E04C0769567955795479554
:103850000A94D2F781E090E0A0E0B0E004C0880FC5
:10386000991FAA1FBB1F2A95D2F70197A109B10979
:103870008E219F21A023B1230097A105B10521F03E
:1038800081E090E0A0E0B0E09A01AB01282B392B59
:103890004A2B5B2BDA01C9018F779070A070B07052
:1038A00080349105A105B10539F427FF09C0205CDA
:1038B0003F4F4F4F5F4F04C0215C3F4F4F4F5F4F13
:1038C000E0E0F0E02030A0E03A07A0E04A07A0E402
:1038D0005A0710F0E1E0F0E079018A0127C0603872
:1038E000710564F5FB01E158FF4FD801C7018F77DF
:1038F0009070A070B07080349105A105B10539F4C5
:10390000E7FE0DC080E490E0A0E0B0E004C08FE3EB
:1039100090E0A0E0B0E0E80EF91E0A1F1B1F17FFA1
:1039200005C016950795F794E794319687E01695AC
:103930000795F794E7948A95D1F705C0EE24FF2404
:103940008701EFEFF0E06E2F679566276795902F60
:103950009F77D794DD24D7948E2F8695492F462BB9
:10396000582F5D29B701CA011F910F91FF90EF9069
:10397000DF900895FC01DB01408151812281622F9B
:103980006F7770E0221F2227221F9381892F880FD3
:10399000822B282F30E0991F9927991F11969C930D
:1039A000119721153105A9F54115510561057105DD
:1039B00011F482E037C082E89FEF13969C938E93B8
:1039C00012979A01AB0167E0220F331F441F551F66
:1039D0006A95D1F783E08C930DC0220F331F441FEB
:1039E000551F12968D919C911397019713969C9356
:1039F0008E931297203080E0380780E0480780E4FB
:103A0000580758F314962D933D934D935C93179755
:103A100008952F3F310579F4411551056105710570
:103A200019F484E08C93089564FF03C081E08C93C3
:103A300012C01C9210C02F57304013963C932E9307
:103A4000129783E08C9387E0440F551F661F771F02
:103A50008A95D1F7706414964D935D936D937C9322
:103A6000179708951F93DC01FB019C91923008F495
:103A700047C08081823008F443C0943051F41196DD
:103A80001C91843099F58181682F70E0611B710968
:103A90003FC0843021F0923031F48230B9F181811D
:103AA000882389F12DC011961C9111978230F1F075
:103AB00081811817D9F412962D913C911397828128
:103AC00093818217930794F028173907BCF0149656
:103AD0008D919D910D90BC91A02D248135814681C1
:103AE0005781281739074A075B0718F4112341F05B
:103AF0000AC082179307A407B50740F4112319F0F1
:103B000061E070E005C06FEF7FEF02C060E070E041
:103B1000CB011F910895629FD001739FF001829F96
:103B2000E00DF11D649FE00DF11D929FF00D839F4C
:103B3000F00D749FF00D659FF00D9927729FB00DE9
:103B4000E11DF91F639FB00DE11DF91FBD01CF01FC
:103B500011240895AA1BBB1B51E107C0AA1FBB1F5C
:103B6000A617B70710F0A61BB70B881F991F5A9509
:103B7000A9F780959095BC01CD01089597FB092E7A
:103B800007260AD077FD04D0E5DF06D000201AF41E
:103B9000709561957F4F0895F6F7909581959F4FA9
:103BA0000895A1E21A2EAA1BBB1BFD010DC0AA1F7E
:103BB000BB1FEE1FFF1FA217B307E407F50720F096
:103BC000A21BB30BE40BF50B661F771F881F991F11
:103BD0001A9469F760957095809590959B01AC015A
:103BE000BD01CF0108952F923F924F925F926F9245
:103BF0007F928F929F92AF92BF92CF92DF92EF927D
:103C0000FF920F931F93CF93DF93CDB7DEB7CA1BFD
:103C1000DB0B0FB6F894DEBF0FBECDBF09942A8828
:103C2000398848885F846E847D848C849B84AA84D0
:103C3000B984C884DF80EE80FD800C811B81AA815D
:103C4000B981CE0FD11D0FB6F894DEBF0FBECDBF28
:103C5000ED010895FB01DC0102C001900D9241507D
:0A3C60005040D8F70895F894FFCF04
:103C6A000000000000000000000102020303030339
:103C7A0004040404040404040505050505050505F2
:103C8A0005050505050505050606060606060606D2
:103C9A0006060606060606060606060606060606BA
:103CAA0006060606060606060707070707070707A2
:103CBA00070707070707070707070707070707078A
:103CCA00070707070707070707070707070707077A
:103CDA00070707070707070707070707070707076A
:103CEA000707070707070707080808080808080852
:103CFA00080808080808080808080808080808083A
:103D0A000808080808080808080808080808080829
:103D1A000808080808080808080808080808080819
:103D2A000808080808080808080808080808080809
:103D3A0008080808080808080808080808080808F9
:103D4A0008080808080808080808080808080808E9
:103D5A0008080808080808080808080808080808D9
:083D6A00080808080808080811
:00000001FF
