:100000000C9479000C9496000C9496000C94960035
:100010000C9496000C9496000C9496000C94960008
:100020000C9496000C94BC090C9496000C949600C9
:100030000C9496000C9496000C9496000C949600E8
:100040000C9411020C9496000C94B6000C94E200EF
:100050000C9496000C949D070C9496000C949600BA
:100060000C9496000C949600B00FCC0FD10FE20FB9
:10007000F30FB213B213B213B40F07100C10111018
:1000800016101B10231031103F104D105B1069101B
:100090007710831091109F10AB10B910C710D510B6
:1000A000E310F110FF100D111B112911351143112F
:1000B0004F115D116B117911B213B213B213B21358
:1000C000B213B213B213B213B213B213B213871135
:1000D000051295113212B1115F12A3118C12BF11CA
:1000E000B912CD11E612DB111313E9114613F71102
:1000F000731311241FBECFEFD8E0DEBFCDBF12E0D7
:10010000A0E0B1E0ECEFFDE302C005900D92A03E4F
:10011000B107D9F715E0A0EEB2E001C01D92A339F6
:10012000B107E1F70E94A2000C94FC1E0C940000A1
:1001300089E190E00E940C010E941A170E946E084B
:10014000789408950E9498000E9446090E94FB0638
:10015000982F8823C9F3809166059817A9F3909387
:100160006605109263050E940D17EECF1F920F9245
:100170000FB60F9211242F938F939F93EF93FF93BA
:100180009091C0002091C600E0912203EF5FEF71D3
:1001900080912303E81711F482E008C0892F887149
:1001A000E0932203F0E0E050FD4F2083809324038E
:1001B000FF91EF919F918F912F910F900FBE0F9014
:1001C0001F9018951F920F920FB60F9211248F93C4
:1001D0009F93EF93FF9390912003809121039817B1
:1001E00069F0E0912103EF5FEF71E0932103F0E00C
:1001F000E052FD4F80818093C60005C08091C10010
:100200008F7D8093C100FF91EF919F918F910F900F
:100210000FBE0F901F9018959C0110922003109212
:100220002103109222031092230397FF04C082E05F
:100230008093C0003F773093C5002093C40088E9C5
:100240008093C10086E08093C200089590912203BC
:1002500080912303981719F420E031E012C0E09157
:100260002303EF5FEF71E0932303F0E0E050FD4FD5
:10027000308120912403922F80E0AC01430F511D67
:100280009A01C9010895282F909120039F5F9F71C3
:10029000809121039817E1F3E92FF0E0E052FD4F40
:1002A0002083909320038091C10080628093C100DD
:1002B0000895CF93DF93EC0103C021960E94430180
:1002C00088818823D1F7DF91CF910895CF93DF9371
:1002D000EC0102C00E944301FE0121968491882313
:1002E000C9F7DF91CF9108958091220320912303D4
:1002F00090E04F96821B91096FE170E00E94871E8B
:1003000008958091230380932203089527E030E02D
:10031000482F50E05C98CA01022E02C0959587953F
:100320000A94E2F780FD02C05A9801C05A9A5C9A7A
:10033000215030408FEF2F3F380761F708955F98C5
:100340005F9A0895529A539A549A579A5B985C9878
:100350005F985F9A10926303109264031092650392
:10036000109266031092670310926803109269035B
:1003700010926A0310926B0310926C0310926D033B
:1003800010926E0310926F0310927003109271031B
:1003900010927203109273031092740310927503FB
:1003A00010927603109277031092780310927903DB
:1003B00010927A0310927B0310927C0310928303B5
:1003C0001092820310927D0310927E0310927F039D
:1003D0001092800310928103E8E3F3E0108210860C
:1003E000108A108E178E319683E0EE33F807B1F73E
:1003F0001082118210861186108A118A108E178E33
:1004000010A211A212A213A214A284B5836084BD0B
:1004100085B5836085BD80916E00816080936E009C
:1004200008951F920F920FB60F921124FF920F930F
:100430001F932F933F934F935F936F937F938F936C
:100440009F93AF93BF93EF93FF93FFB6F894809180
:10045000600390E0019687709070809360038091B4
:10046000610390E0019667E070E00E94871E809330
:1004700061038091620390E0019666E070E00E9463
:10048000871E809362035B98909160038091600364
:100490008295807F08E313E0F801E90FF11D908158
:1004A000892B0E9486019091600380916003829560
:1004B000807FF801E90FF11D9085892B0E9486014C
:1004C00090916003809160038295807FF801E90F2D
:1004D000F11D9089892B0E94860190916103809182
:1004E00061038295807FF801E90FF11D908D892BC2
:1004F0000E94860190916203809162038295807FC1
:10050000090F111DF801978D892B0E9486015B9AB6
:10051000FFBEFF91EF91BF91AF919F918F917F911E
:100520006F915F914F913F912F911F910F91FF908C
:100530000F900FBE0F901F901895EF92FF920F93A0
:100540001F937A018B018330C9F0843038F48130F5
:1005500009F427C2823008F0A9C29EC1883009F48C
:100560002AC3893020F4843009F0D1C3CEC0893049
:1005700009F45BC38A3009F0CAC391C380916F0349
:1005800090917003A0917103B09172038417950745
:10059000A607B70709F4BBC340936F0350937003DA
:1005A00060937103709372038AE090E060E070E002
:1005B0000E9411089B01AC01C801B7010E949A1E5C
:1005C000CA01B9012AE030E040E050E00E949A1EE2
:1005D000609338038AE090E061E070E00E941108C7
:1005E0009B01AC01C801B7010E949A1ECA01B90162
:1005F0002AE030E040E050E00E949A1E6093390308
:100600008AE090E062E070E00E9411089B01AC017A
:10061000C801B7010E949A1ECA01B9012AE030E060
:1006200040E050E00E949A1E60933A038AE090E016
:1006300063E070E00E9411089B01AC01C801B701A2
:100640000E949A1ECA01B9012AE030E040E050E061
:100650000E949A1E60933B038AE090E064E070E0A1
:100660000E9411089B01AC01C801B7010E949A1EAB
:10067000CA01B9012AE030E040E050E00E949A1E31
:1006800060933C038AE090E065E070E00E9411080E
:100690009B01AC01C801B7010E949A1ECA01B901B1
:1006A0002AE030E040E050E00E949A1E60933D0353
:1006B0008AE090E066E070E00E9411089B01AC01C6
:1006C000C801B7010E949A1ECA01B9012AE030E0B0
:1006D00040E050E00E949A1E60933E038AE090E062
:1006E00067E070E00E9411089B01AC01C801B701EE
:1006F0000E949A1ECA01B9012AE030E040E050E0B1
:100700000E949A1E60933F0302C3809173039091ED
:100710007403A0917503B091760384179507A6071B
:10072000B70709F4F4C240937303509374036093C2
:100730007503709376038AE090E060E070E00E94B9
:1007400011089B01AC01C801B7010E949A1ECA01A1
:10075000B9012AE030E040E050E00E949A1E609328
:1007600040038AE090E061E070E00E9411089B0184
:10077000AC01C801B7010E949A1ECA01B9012AE062
:1007800030E040E050E00E949A1E609341038AE00E
:1007900090E062E070E00E9411089B01AC01C8018A
:1007A000B7010E949A1ECA01B9012AE030E040E078
:1007B00050E00E949A1E609342038AE090E063E05A
:1007C00070E00E9411089B01AC01C801B7010E94B2
:1007D0009A1ECA01B9012AE030E040E050E00E94D0
:1007E0009A1E609343038AE090E064E070E00E9408
:1007F00011089B01AC01C801B7010E949A1ECA01F1
:10080000B9012AE030E040E050E00E949A1E609377
:1008100044038AE090E065E070E00E9411089B01CB
:10082000AC01C801B7010E949A1ECA01B9012AE0B1
:1008300030E040E050E00E949A1E609345038AE059
:1008400090E066E070E00E9411089B01AC01C801D5
:10085000B7010E949A1ECA01B9012AE030E040E0C7
:1008600050E00E949A1E609346038AE090E067E0A1
:1008700070E00E9411089B01AC01C801B7010E9401
:100880009A1ECA01B9012AE030E040E050E00E941F
:100890009A1E609347033BC2809163039091640367
:1008A000A0916503B091660384179507A607B70763
:1008B00009F42DC24093630350936403609365036E
:1008C000709366038AE090E060E070E00E94110897
:1008D0009B01AC01C801B7010E949A1ECA01B9016F
:1008E0002AE030E040E050E00E949A1E6093480306
:1008F0008AE090E061E070E00E9411089B01AC0189
:10090000C801B7010E949A1ECA01B9012AE030E06D
:1009100040E050E00E949A1E609349038AE090E014
:1009200062E070E00E9411089B01AC01C801B701B0
:100930000E949A1ECA01B9012AE030E040E050E06E
:100940000E949A1E60934A038AE090E063E070E0A0
:100950000E9411089B01AC01C801B7010E949A1EB8
:10096000CA01B9012AE030E040E050E00E949A1E3E
:1009700060934B038AE090E064E070E00E9411080D
:100980009B01AC01C801B7010E949A1ECA01B901BE
:100990002AE030E040E050E00E949A1E60934C0351
:1009A000B6C18091670390916803A0916903B091EB
:1009B0006A0384179507A607B70709F4A8C14093EF
:1009C0006703509368036093690370936A038AE036
:1009D00090E060E070E00E9411089B01AC01C8014A
:1009E000B7010E949A1ECA01B9012AE030E040E036
:1009F00050E00E949A1E60934D038AE090E061E00F
:100A000070E00E9411089B01AC01C801B7010E946F
:100A10009A1ECA01B9012AE030E040E050E00E948D
:100A20009A1E60934E038AE090E062E070E00E94BC
:100A300011089B01AC01C801B7010E949A1ECA01AE
:100A4000B9012AE030E040E050E00E949A1E609335
:100A50004F038AE090E063E070E00E9411089B0180
:100A6000AC01C801B7010E949A1ECA01B9012AE06F
:100A700030E040E050E00E949A1E609350038AE00C
:100A800090E064E070E00E9411089B01AC01C80195
:100A9000B7010E949A1ECA01B9012AE030E040E085
:100AA00050E00E949A1E6093510331C180916B0304
:100AB00090916C03A0916D03B0916E03841795071C
:100AC000A607B70709F423C140936B0350936C0347
:100AD00060936D0370936E038AE090E060E070E0D5
:100AE0000E9411089B01AC01C801B7010E949A1E27
:100AF000CA01B9012AE030E040E050E00E949A1EAD
:100B0000609352038AE090E061E070E00E94110877
:100B10009B01AC01C801B7010E949A1ECA01B9012C
:100B20002AE030E040E050E00E949A1E60935303B8
:100B30008AE090E062E070E00E9411089B01AC0145
:100B4000C801B7010E949A1ECA01B9012AE030E02B
:100B500040E050E00E949A1E609354038AE090E0C7
:100B600063E070E00E9411089B01AC01C801B7016D
:100B70000E949A1ECA01B9012AE030E040E050E02C
:100B80000E949A1E609355038AE090E064E070E052
:100B90000E9411089B01AC01C801B7010E949A1E76
:100BA000CA01B9012AE030E040E050E00E949A1EFC
:100BB00060935603ACC080917A0390E0A0E0B0E06F
:100BC00084179507A607B70709F4A1C040937A03D5
:100BD0008AE090E060E070E00E9411089B01AC01A7
:100BE000C801B7010E949A1ECA01B9012AE030E08B
:100BF00040E050E00E949A1E609357038AE090E024
:100C000061E070E00E9411089B01AC01C801B701CE
:100C10000E949A1ECA01B9012AE030E040E050E08B
:100C20000E949A1E6093580372C080917B0390E0EB
:100C3000A0E0B0E084179507A607B70709F467C0DE
:100C400040937B038AE090E060E070E00E9411082E
:100C50009B01AC01C801B7010E949A1ECA01B901EB
:100C60002AE030E040E050E00E949A1E6093590371
:100C70008AE090E061E070E00E9411089B01AC0105
:100C8000C801B7010E949A1ECA01B9012AE030E0EA
:100C900040E050E00E949A1E60935A0338C0809151
:100CA0007C0390E0A0E0B0E084179507A607B707A3
:100CB00071F140937C038AE090E060E070E00E9474
:100CC00011089B01AC01C801B7010E949A1ECA011C
:100CD000B9012AE030E040E050E00E949A1E6093A3
:100CE0005B038AE090E061E070E00E9411089B01E4
:100CF000AC01C801B7010E949A1ECA01B9012AE0DD
:100D000030E040E050E00E949A1E60935C031F9127
:100D10000F91FF90EF90089540917A0350E060E0CA
:100D200070E088E00E949D0240917B0350E060E00B
:100D300070E089E00E949D0240917C0350E060E0F9
:100D400070E08AE00E949D02409163035091640329
:100D5000609165037091660380E00E949D0240915E
:100D60006703509168036091690370916A0381E0A1
:100D70000E949D0240916B0350916C0360916D0342
:100D800070916E0382E00E949D0240916F0350912A
:100D90007003609171037091720383E00E949D0261
:100DA00040917303509174036091750370917603C1
:100DB00084E00E949D02089510922D0310922C034E
:100DC0003898ECE7F0E01082808180648083EAE765
:100DD000F0E08081876080838081806280831092D0
:100DE0007B008081806880838081886080838081AF
:100DF00080648083089580912C0390912D0321E0DD
:100E000082379207B0F521E08037920708F06FC073
:100E100081389105E0F48F37910508F074C087346C
:100E2000910509F46EC08834910540F48332910530
:100E300009F465C0C89709F078C055C08F34910592
:100E400009F46BC08E36910509F06FC04AC0803C32
:100E5000910548F48E3B910508F047C0803B910511
:100E600009F063C05CC08A509140029708F05DC0F1
:100E70004CC022E08C3C9207D0F422E08A3C9207DE
:100E800008F051C022E08832920709F440C022E005
:100E90008932920730F4835A9140029708F045C096
:100EA00040C08A599240029708F03FC022C023E018
:100EB000873C920788F423E0853C920760F523E0A5
:100EC0008E32920731F123E08E32920770F1815712
:100ED0009340029750F50FC08A5D9340029728F522
:100EE0000CC08BE2089586E7089587E0089588E0B6
:100EF000089589E0089583E6089585E608958EE6CD
:100F000008958DE2089584E0089585E0089586E0CF
:100F1000089580E7089582E7089581E0089582E0CA
:100F2000089583E008958BE6089580E00895209168
:100F30002C0330912D03C90108951F920F920FB613
:100F40000F9211241F932F933F934F935F936F93AF
:100F50007F938F939F93AF93BF93CF93DF93EF9341
:100F6000FF931FB7F894C0917800D09179008091D9
:100F70002603909127038C1B9D0B0196039770F518
:100F80009E01442737FD4095542F8091280390916E
:100F90002903A0912A03B0912B03280F391F4A1F60
:100FA0005B1F209328033093290340932A03509317
:100FB0002B0380912503813369F4CA01B90122E32F
:100FC00030E040E050E00E949A1E30932D032093C1
:100FD0002C0304C08F5F809325030AC0109228035E
:100FE0001092290310922A0310922B0310922503CA
:100FF000D0932703C09326031FBFFF91EF91DF918A
:10100000CF91BF91AF919F918F917F916F915F91A0
:101010004F913F912F911F910F900FBE0F901F90F6
:101020001895CF92DF92EF92FF920F931F93CF9379
:10103000DF936C01EB0191E0E92EF12C012D112DD4
:1010400017C0C0FF0BC09601442737FD4095542FB1
:10105000C801B7010E94541E7B018C01D595C7952C
:10106000C601889F6001899FD00C989FD00C1124E5
:10107000209739F7B701C801DF91CF911F910F91E8
:10108000FF90EF90DF90CF900895FC0180819181D7
:101090008617970719F480E090E00AC08281938157
:1010A0008617970719F02FEF3FEF03C081E090E01C
:1010B0009C01C9010895FC018081861711F480E02C
:1010C00008958181861711F08FEF089581E00895CA
:1010D00010928B0385E680934A0408950E949E092E
:1010E00010928B0385E680934A040895FF920F9334
:1010F0001F93CF93DF93182F092FF62E8EEB0E94AC
:1011000043018FEE0E9443018F2D0E944301212F46
:10111000302FC901EC010F2D10E005C0899108277F
:101120000E9443011F5F1F15C8F3802F0E944301D7
:10113000DF91CF911F910F91FF90089510928B0333
:1011400083E080938C0381E080938D0384E080931F
:101150008E038BE893E064E00E9476080895809106
:101160008F038823D9F50E9474010497BCF105C050
:101170000E947401892B09F487C00E9426018E3BCE
:10118000B9F70E9426018F3E01F50E942601809347
:101190008F030E942601982F8093600581E0809341
:1011A0008A03992319F0913081F406C084E080937A
:1011B00045048BE893E005C081EB8093450480E90A
:1011C00093E0909389038093880390918F0380919B
:1011D0004504981719F010928F0354C080918F0323
:1011E000882369F451C00E94260190918A03E92F57
:1011F000F0E0E05AFB4F80839F5F90938A030E9448
:101200007401892B31F090918A0380918F038917A3
:1012100050F7809160058093600430918F03A32F75
:10122000B0E080918A0390E00197A817B90761F5B3
:10123000232F90E007C0E92FF0E0E05AFB4F8081B8
:1012400028279F5F9317B8F320935F04E0E6F4E04C
:10125000AE0FBF1F8C91281781F4409145048091F7
:10126000880390918903BF0150E00E94F31E109201
:101270008F0381E080938A03089510928F0381E0A9
:1012800080938A0380E0089580E00895EF92FF92B2
:101290000F931F930E94AE09609346047093470416
:1012A00080934804909349040E94AF08209146041B
:1012B000309147044091480450914904882391F0AB
:1012C00020938403309385034093860350938703D0
:1012D00080916005882311F40E949E0881E080932C
:1012E0002E0327C08091840390918503A0918603EB
:1012F000B091870379018A01E81AF90A0A0B1B0BDE
:10130000D801C701E0924104F092420400934304E3
:1013100010934404815D9740A040B04050F020936A
:101320008403309385034093860350938703109280
:101330002E031F910F91FF90EF900895E0EBF0E0E6
:10134000808183608083E1EBF0E080818460808332
:10135000E0E7F0E080818160808308958FB7F894A2
:10136000209133033091340340913503509136037B
:101370008FBFB901CA0108951F920F920FB60F9245
:1013800011242F933F934F938F939F93AF93BF93CA
:101390004FB7F8948091330390913403A0913503B3
:1013A000B0913603309137030196A11DB11D232F53
:1013B0002D5F2D3720F02D570196A11DB11D2093D3
:1013C00037038093330390933403A0933503B09392
:1013D000360380912F0390913003A0913103B09197
:1013E00032030196A11DB11D80932F03909330030A
:1013F000A0933103B09332034FBFBF91AF919F9140
:101400008F914F913F912F910F900FBE0F901F9092
:10141000189560912504709126048091270490917D
:10142000280420E030E040EA50E40E94621B882358
:1014300034F48091910590919205816005C080916E
:101440009105909192058E7F9093920580939105DE
:1014500020916205822F8350823010F0263031F4C3
:101460008091910590919205886005C080919105C9
:1014700090919205877F90939205809391052530F6
:1014800031F48091910590919205806205C0809120
:101490009105909192058F7D90939205809391058F
:1014A0006091AD037091AE038091AF039091B00352
:1014B00020E030E040EA50E40E94021B181634F4A9
:1014C0008091910590919205916005C08091910560
:1014D000909192059E7F90939205809391056091E3
:1014E00015047091160480911704909118042091AE
:1014F00011043091120440911304509114040E947D
:10150000561A20E030E040E050E00E94621B882341
:1015100034F48091910590919205926005C080917C
:101520009105909192059D7F9093920580939105EE
:10153000089580916405909165052BE08E349207A3
:1015400009F4C9C24BE08F34940790F559E08B350C
:101550009507A8F429E08835920708F088C248E08A
:101560008039940708F4B1C458E08339950708F42A
:1015700062C2845F9840039708F0A7C46AC22AE059
:101580008332920758F44AE08032940708F08BC205
:101590008C5B9940039708F098C477C25AE086386C
:1015A000950709F48EC28A5E9A4009F08EC48EC2F5
:1015B00042E18435940709F493C252E185359507D9
:1015C000E0F420E18036920709F4A1C340E18136BE
:1015D000940748F45DE08C3A950789F1875D9E4059
:1015E00009F073C480C040E1843C940709F4C4C38B
:1015F0008852914109F069C4FAC323E18038920707
:1016000009F442C443E18138940750F452E1883B25
:10161000950709F4D6C28C51934109F056C412C300
:1016200043E18C3E940709F435C454E180359507B5
:1016300009F43EC48858934109F047C429C481E0A5
:1016400080937D0380E197E2A0E0B0E080937E0389
:1016500090937F03A0938003B093810388E58093E8
:101660007A0380937B0380937C0388E39BE5A1E06E
:10167000B0E08093630390936403A0936503B093F9
:1016800066038093670390936803A0936903B09304
:101690006A0380936B0390936C03A0936D03B093E4
:1016A0006E0388E396E5ACE4B5E080936F03909316
:1016B0007003A0937103B0937203809373039093AC
:1016C0007403A0937503B093760384E68093770345
:1016D00080937803809379038FEF9FEF9093830338
:1016E00080938203FEC380916D05805580936705CA
:1016F000833009F49AC0843038F4813009F451C041
:10170000823008F06BC00AC0873009F4EEC089301F
:1017100009F434C1843009F0D8C3D0C010927005E8
:1017200010927105109272051092730581E090E09D
:101730009093750580937405109276051092770545
:10174000109278051092790590937B0580937A0525
:1017500010927C0510927D0510927E0510927F05F7
:1017600090938105809380051092820510928305E5
:1017700010928405109285059093870580938605C5
:10178000109288051092890510928A0510928B0597
:1017900090938D0580938C0510928E0510928F0585
:1017A00047C182E090E0A0E0B0E0809370059093A4
:1017B0007105A0937205B093730583E090E0A0E0FB
:1017C000B0E08093760590937705A0937805B09369
:1017D000790584E090E0A0E0B0E04EC181E090E0C7
:1017E000A0E0B0E08093700590937105A09372051E
:1017F000B093730581E090E0909375058093740534
:10180000109276051092770510927805109279055E
:1018100090937B0580937A0510927C0510927D054C
:1018200010927E0510927F05FAC18AE190E0A0E057
:10183000B0E08093700590937105A0937205B0930A
:10184000730521E030E0309375052093740584E141
:1018500090E0A0E0B0E08093760590937705A093A8
:101860007805B093790530937B0520937A0583E161
:1018700090E0A0E0B0E080937C0590937D05A0937C
:101880007E05B0937F0588EE93E090938105809369
:1018900080058EE090E0A0E0B0E080938205909318
:1018A0008305A0938405B093850530938705209325
:1018B00086058EE190E0A0E0B0E0A8C08AE190E06B
:1018C000A0E0B0E08093700590937105A09372053D
:1018D000B093730521E030E03093750520937405D3
:1018E00084E190E0A0E0B0E016C08DE190E0A0E0DF
:1018F000B0E08093700590937105A0937205B0934A
:10190000730521E030E0309375052093740585E17F
:1019100090E0A0E0B0E08093760590937705A093E7
:101920007805B093790530937B0520937A0582E1A1
:1019300090E0A0E0B0E080937C0590937D05A093BB
:101940007E05B0937F0588EE93E0909381058093A8
:1019500080058EE090E0A0E0B0E080938205909357
:101960008305A0938405B093850530938705209364
:1019700086058FE090E0A0E0B0E048C08DE190E007
:10198000A0E0B0E08093700590937105A09372057C
:10199000B093730521E030E0309375052093740512
:1019A00085E290E0A0E0B0E0809376059093770523
:1019B000A0937805B093790530937B0520937A0541
:1019C00086E290E0A0E0B0E080937C0590937D05F6
:1019D000A0937E05B0937F05309381052093800509
:1019E00089E190E0A0E0B0E08093820590938305C8
:1019F000A0938405B09385052AE030E030938705F5
:101A00002093860588E190E0A0E0B0E0809388050F
:101A100090938905A0938A05B0938B0530938D052B
:101A200020938C0586E380938E058CE380938F054D
:101A30001092900556C280916D0590E0A0E0B0E054
:101A40008093700590937105A0937205B093730510
:101A500048C280916D0590E0A0E0B0E080937605EB
:101A600090937705A0937805B09379053AC2809159
:101A70006D0590E0A0E0B0E080937C0590937D053B
:101A8000A0937E05B0937F052CC280916D0590E0F8
:101A9000A0E0B0E08093820590938305A093840535
:101AA000B09385051EC280916D0590E0A0E0B0E086
:101AB0008093880590938905A0938A05B0938B0540
:101AC00010C280916D0580938E050BC280916D05CB
:101AD00080938F0506C280916D058093900501C2A9
:101AE00080916D058B30A1F18C3030F4893051F04C
:101AF0008A3009F0F6C119C08C30E9F18D3009F057
:101B0000F0C14CC080917405909175059C0153E023
:101B1000220F331F5A95E1F7880F991F280F391F9D
:101B20003093750520937405DCC180917A059091FE
:101B30007B059C01B3E0220F331FBA95E1F7880FB4
:101B4000991F280F391F30937B0520937A05C9C14F
:101B500080918005909181059C01F3E0220F331F55
:101B6000FA95E1F7880F991F280F391F30938105E7
:101B700020938005B6C180918605909187059C01D0
:101B800073E0220F331F7A95E1F7880F991F280F12
:101B9000391F3093870520938605A3C180918C055A
:101BA00090918D059C0153E0220F331F5A95E1F768
:101BB000880F991F280F391F30938D0520938C05AE
:101BC00090C180916D058B30E1F08C3030F489301C
:101BD00051F08A3009F085C10DC08C3029F18D306B
:101BE00009F07FC128C0809174059091750524E6A5
:101BF00030E040C080917A0590917B0524E630E08A
:101C00004CC0809180059091810524E630E0AC01C4
:101C1000429FC001439F900D529F900D11249093BD
:101C20008105809380055DC180918605909187052F
:101C300024E630E04CC080918C0590918D0524E61F
:101C400030E058C080916D058B30A1F18C3030F4BC
:101C5000893051F08A3009F044C119C08C3089F1C3
:101C60008D3009F03EC140C080917405909175059A
:101C700028EE33E0AC01429FC001439F900D529F7C
:101C8000900D112490937505809374052AC180915D
:101C90007A0590917B0528EE33E0AC01429FC001AC
:101CA000439F900D529F900D112490937B0580933C
:101CB0007A0517C1809180059091810528EE33E067
:101CC000A6CF809186059091870528EE33E0AC0180
:101CD000429FC001439F900D529F900D11249093FD
:101CE000870580938605FDC080918C0590918D05B8
:101CF00028EE33E0AC01429FC001439F900D529FFC
:101D0000900D112490938D0580938C05EAC08091ED
:101D10006D058B30E1F08C3030F4893051F08A3031
:101D200009F0DFC00DC08C30C9F08D3009F0D9C08A
:101D30001CC080917405909175056AE070E06FC0D9
:101D400080917A0590917B056AE070E075C0809182
:101D50008005909181056AE070E07BC080918605E6
:101D6000909187056AE070E081C080918C05909128
:101D70008D056AE070E034C080916D058B30E1F034
:101D80008C3030F4893051F08A3009F0AAC00DC08F
:101D90008C30C9F08D3009F0A4C01CC0809174054E
:101DA0009091750564E670E03AC080917A05909153
:101DB0007B0564E670E040C08091800590918105CC
:101DC00064E670E046C0809186059091870564E6E0
:101DD00070E04CC080918C0590918D0564E670E0B8
:101DE0000E94731E70938D0560938C057AC080915C
:101DF0006D058B3041F18C3030F4893051F08A30F0
:101E000009F06FC013C08C3059F18D3009F069C0F2
:101E100034C0809174059091750568EE73E00E945E
:101E2000731E70937505609374055BC080917A058D
:101E300090917B0568EE73E00E94731E70937B05A2
:101E400060937A054EC0809180059091810568EE7F
:101E500073E00E94731E709381056093800541C0FA
:101E6000809186059091870568EE73E00E94731E4D
:101E7000709387056093860534C080918C0590919E
:101E80008D0568EE73E0ACCF83E08093620529C0D6
:101E900086E00FC010927D0380919105909192058C
:101EA0008B7F90939205809391051092620519C0E3
:101EB00084E08093620580919105909192058860FD
:101EC00090939205809391050CC08091910590911B
:101ED00092058068909392058093910583EF80939B
:101EE0006105109265051092640508951F93CF93C4
:101EF000DF93162F6230C1F0633028F4662351F06F
:101F0000613029F40CC06330A1F06430B9F0C1E055
:101F1000D0E018C0C0917405D091750513C0C09170
:101F20007A05D0917B050EC0C0918005D0918105C6
:101F300009C0C0918605D091870504C0C0918C0569
:101F4000D0918D05E82FF0E0E534F10508F00AC4E2
:101F5000EC5CFF4FEE0FFF1F0590F491E02D09940C
:101F6000183008F4FFC3F2C3153018F4133028F406
:101F700009C0183008F0EAC30AC028E336E54CE48B
:101F800055E0F4C328E33BE541E050E0EFC324E62D
:101F900030E040E050E0EAC380916105282F30E056
:101FA0004FC060912104709122048091230490918C
:101FB000240420E13EE040E050E00E949A1EC90166
:101FC000DA0122C0609121047091220480912304DF
:101FD000909124042CE330E040E050E00E949A1EEF
:101FE000CA01B90108C06091210470912204809156
:101FF0002304909124042CE330E040E050E00E9460
:102000009A1EAC01CB01DA019C01AD01AFC38091F6
:1020100074059091750513C080917A0590917B05A8
:102020000EC0809180059091810509C08091860540
:102030009091870504C080918C0590918D059C013D
:1020400040E050E093C3BE0180E090E00E94E61BB8
:102050002091910330919203409193035091940306
:102060000EC3BE0180E090E00E94E61B2091950324
:1020700030919603409197035091980300C3BE019D
:1020800080E090E00E94E61B2091990330919A0332
:1020900040919B0350919C03F2C2BE0180E090E00E
:1020A0000E94E61B20919D0330919E0340919F0367
:1020B0005091A003E4C2BE0180E090E00E94E61BC4
:1020C0002091A5033091A6034091A7035091A80346
:1020D000D6C2BE0180E090E00E94E61B2091A903D9
:1020E0003091AA034091AB035091AC03C8C2BE012A
:1020F00080E090E02091B1033091B2034091B303AE
:102100005091B4030BC0BE0180E090E02091B50374
:102110003091B6034091B7035091B8030E94541E0A
:10212000B2C2BE0180E090E00E94E61B2091B9039C
:102130003091BA034091BB035091BC03A0C2BE01D1
:1021400080E090E02091C1033091C2034091C3032D
:102150005091C403E3CFBE0180E090E00E94E61BF3
:102160002091A1033091A2034091A3035091A403B5
:1021700086C2BE0180E090E00E94E61B2091CD0364
:102180003091CE034091CF035091D00378C2BE016D
:1021900080E090E00E94E61B2091290430912A04FF
:1021A00040912B0450912C046AC2BE0180E090E063
:1021B0000E94E61B2091AD033091AE034091AF0326
:1021C0005091B0035CC2BE0180E090E00E94E61B2B
:1021D0002091BD033091BE034091BF035091C003D5
:1021E0004EC2BE0180E090E00E94E61B2091C50334
:1021F0003091C6034091C7035091C80340C2BE014D
:1022000080E090E00E94E61B2091C9033091CA0350
:102210004091CB035091CC0332C2BE0180E090E0EC
:102220000E94E61B2091D1033091D2034091D30349
:102230005091D40324C2BE0180E090E00E94E61BCE
:102240002091D5033091D6034091D7035091D80304
:1022500016C2BE0180E090E020912104309122045A
:10226000409123045091240459CFBE0180E090E0B6
:102270000E94E61B209125043091260440912704FA
:1022800050912804FCC1BE0180E090E020912D0413
:1022900030912E0440912F04509130043FCFBE0165
:1022A00080E090E00E94E61B2091310430913204DE
:1022B0004091330450913404E2C1BE0180E090E0CB
:1022C0000E94E61B2091350430913604409137047A
:1022D00050913804D4C1BE0180E090E00E94E61B1A
:1022E0002091390430913A0440913B0450913C04D0
:1022F000C6C1BE0180E090E00E94E61B20913D0433
:1023000030913E0440913F0450914004B8C1BE0159
:1023100080E090E00E94E61B2091D9033091DA031F
:102320004091DB035091DC03AAC1BE0180E090E044
:102330000E94E61B20911104309112044091130475
:10234000509114049CC1BE0180E090E00E94E61B05
:102350002091190430911A0440911B0450911C04DF
:102360008EC1BE0180E090E00E94E61B2091E10357
:102370003091E2034091E3035091E40380C1BE0138
:1023800080E090E00E94E61B2091E9033091EA038F
:102390004091EB035091EC0372C1BE0180E090E0EC
:1023A0000E94E61B2091F1033091F2034091F30368
:1023B0005091F40364C1BE0180E090E00E94E61BEE
:1023C0002091F9033091FA034091FB035091FC03F3
:1023D00056C1BE0180E090E00E94E61B20910104FE
:1023E00030910204409103045091040448C1BE019D
:1023F00080E090E00E94E61B2091090430910A04DD
:1024000040910B0450910C043AC180E091E0612F9F
:102410000E945B0887FD11C06091DD037091DE03AF
:102420008091DF039091E0032091D9033091DA038A
:102430004091DB035091DC036DC183E091E0612F9B
:102440000E945B0887FD82C1BE0180E090E00E948F
:10245000E61B2091DD033091DE034091DF035091B4
:10246000E0030DC180E091E0612F0E945B0887FDD1
:1024700011C0609115047091160480911704909119
:1024800018042091110430911204409113045091CA
:10249000140440C183E091E0612F0E945B0887FD36
:1024A00055C1BE0180E090E00E94E61B209115041A
:1024B000309116044091170450911804E0C080E058
:1024C00091E0612F0E945B0887FD11C06091E503D8
:1024D0007091E6038091E7039091E8032091E10376
:1024E0003091E2034091E3035091E40313C183E090
:1024F00091E0612F0E945B0887FD28C1BE0180E04A
:1025000090E00E94E61B2091E5033091E6034091A4
:10251000E7035091E803B3C080E091E0612F0E948F
:102520005B0887FD11C060911D0470911E048091AD
:102530001F04909120042091190430911A044091B5
:102540001B0450911C04E6C083E091E0612F0E94BF
:102550005B0887FDFBC0BE0180E090E00E94E61BA7
:1025600020911D0430911E0440911F0450912004BD
:1025700086C080E091E0612F0E945B0887FD11C05A
:102580006091ED037091EE038091EF039091F00361
:102590002091E9033091EA034091EB035091EC0361
:1025A000B9C083E091E0612F0E945B0887FDCEC037
:1025B000BE0180E090E00E94E61B2091ED03309187
:1025C000EE034091EF035091F00359C080E091E099
:1025D000612F0E945B0887FD11C06091F503709127
:1025E000F6038091F7039091F8032091F103309165
:1025F000F2034091F3035091F4038CC083E091E027
:10260000612F0E945B0887FDA1C0BE0180E090E0C1
:102610000E94E61B2091F5033091F6034091F703E9
:102620005091F8032CC080E091E0612F0E945B087C
:1026300087FD11C06091FD037091FE038091FF033F
:10264000909100042091F9033091FA034091FB032B
:102650005091FC035FC083E091E0612F0E945B0812
:1026600087FD74C0BE0180E090E00E94E61B2091CF
:10267000FD033091FE034091FF03509100040E943E
:102680005C190E9486179B01AC0170C080E091E04C
:10269000612F0E945B0887FD11C060910504709155
:1026A0000604809107049091080420910104309160
:1026B000020440910304509104042CC083E091E093
:1026C000612F0E945B0887FD41C0BE0180E090E061
:1026D0000E94E61B209105043091060440910704F6
:1026E00050910804CCCF80E091E0612F0E945B08FC
:1026F00087FD17C060910D0470910E0480910F0446
:10270000909110042091090430910A0440910B0427
:1027100050910C040E94561A20E030E048EC52E43C
:10272000AECF83E091E0612F0E945B0887FD0EC071
:10273000BE0180E090E00E94E61B20910D043091E4
:102740000E0440910F045091100499CF809191058F
:10275000909192058068909392058093910582EF05
:102760008093610520E030E040E050E0B901CA010B
:10277000DF91CF911F9108958091670580937A032F
:1027800020916205253038F4233048F4213061F07F
:10279000223008F504C0253079F1263009F5809102
:1027A0006A0580937B0328C080916C05882319F407
:1027B00010927B0335C0813039F480916B052AE09B
:1027C000829FC001112404C0823051F580916B05B5
:1027D00080937B0325C080916B0580937B031CC095
:1027E00080919105909192058068909392058093D5
:1027F000910581EF80936105253038F4233048F44A
:10280000213071F0223040F404C0253041F12630EF
:10281000D1F480916D050FC080916F05882319F464
:1028200010927C031CC0813049F480916E052AE02F
:10283000829FC001112480937C0311C0823079F4FF
:1028400080916E05F8CF80919105909192058068F6
:10285000909392058093910581EF8093610580911B
:10286000700560E00E94760F6093630370936403C9
:1028700080936503909366038091760561E00E94E2
:10288000760F609367037093680380936903909356
:102890006A0380917C0562E00E94760F60936B036F
:1028A00070936C0380936D0390936E038091820507
:1028B00063E00E94760F60936F03709370038093C0
:1028C0007103909372038091880564E00E94760FF3
:1028D00060937303709374038093750390937603EE
:1028E00080918E0565E00E94760F6093770380915A
:1028F0008F0566E00E94760F6093780380919005C3
:1029000067E00E94760F6093790390919105809122
:102910009205909382038093830391FF03C081E02B
:1029200080937D030895CF93DF9380916C0582306F
:1029300009F0BBC080916F05823009F095C080918D
:102940006B058532C9F0863248F4853108F481C0C0
:102950008A3170F18D3108F07CC043C0813340F47E
:102960008E3208F05AC08952833008F072C055C0C8
:10297000813309F06EC051C088E091E060916E052E
:102980000E945B0887FD09C090916B0584E6989FC3
:10299000E0011124CD59DF4F8AC0809191059091BB
:1029A0009205806490939205809391058DE07BC0A1
:1029B0008FE091E060916E050E945B0887FF19C06F
:1029C00081E291E060916E050E945B0887FD25C061
:1029D00090916B0584E6989FE0011124C35ADF4F64
:1029E00066C08FE091E060916E050E945B0887FDF4
:1029F00009C090916B0584E6989FE0011124C25AAA
:102A0000DF4F55C08091910590919205806490931D
:102A100092058093910582E746C08BE391E0609137
:102A20006E050E945B0887FD09C090916B0584E6E6
:102A3000989FE0011124C45ADF4F39C0809191055D
:102A400090919205806490939205809391058AE716
:102A50002AC080919105909192058064909392058F
:102A6000809391058FE61FC08823F9F480E491E0FC
:102A700060916B050E945B0887FD17C0809162051D
:102A8000813039F490916B0584E6989FE001112420
:102A90000EC080919105909192058064909392056B
:102AA000809391058EE880936105C0E0D0E084E9D1
:102AB00091E0BE010E94450897FF02C080E015C06A
:102AC00080916B0580936A0510926B0510926C05DE
:102AD00080916E0580936D0510926E0510926F05C2
:102AE000D0936505C093640581E0DF91CF9108958F
:102AF00080916305882309F062C1309166053536FF
:102B000009F428C1363684F43B3209F450C03C3213
:102B100024F43A3008F042C17CC03D3209F458C078
:102B2000333609F03BC1D5C0303709F4E7C031373F
:102B30003CF43B3609F43EC13E3609F02FC11DC0BE
:102B4000323709F41FC1363709F028C18091620578
:102B5000882341F481E08093620510926B05109206
:102B60006C0528C1809191059091920580649093A5
:102B700092058093910585E6A9C080916205813018
:102B800059F480916C05823039F48093620510927B
:102B90006E0510926F050EC180919105909192057E
:102BA0008064909392058093910586E68FC0809112
:102BB0006205833011F48EE210C0809191059091EE
:102BC00092058064909392058093910588E67EC07B
:102BD00080916205833091F489E280936B0592E0E5
:102BE00090936C0580916D0580936E0590936F05B1
:102BF0000E949314882309F4B6C0B2C08091910555
:102C0000909192058064909392058093910589E656
:102C10005DC090916205913021F0923009F04CC076
:102C200026C080916C05882329F430936B0590931E
:102C30006C05C0C0813069F480916B052AE0829FE9
:102C4000C0011124380F30936B0582E080936C052E
:102C5000B1C0823008F4AEC0809191059091920588
:102C60008064909392058093910583E82FC08091B2
:102C70006F05882321F430936E0581E00CC081300C
:102C800069F480916E052AE0829FC0011124380FFB
:102C900030936E0582E080936F058CC0823008F41B
:102CA00089C08091910590919205806490939205DE
:102CB0008093910584E80AC08091910590919205D6
:102CC0008064909392058093910587E680936105D7
:102CD00071C080916205882309F46CC010926B0565
:102CE00010926C0510926E0510926F05109262059D
:102CF0008091910590919205807C58C080916205E9
:102D0000843019F08630D9F40DC0809191059091EE
:102D10009205877F909392058093910585E080933B
:102D2000620548C08091910590919205877F8460EB
:102D30009093920580939105109262053BC080911B
:102D400091059091920580649093920580939105EE
:102D50008AE6BCCF0E949314882329F01092620562
:102D60000E94990A27C080916105882319F58091F6
:102D700091059091920580649093920580939105BE
:102D80008DE8A4CF80919105909192058F739093D7
:102D9000920580939105109261050CC084EF809399
:102DA00061058091910590919205806890939205BC
:102DB000809391051092660581E080936305809170
:102DC0007D03813099F480917E0390917F03A091DF
:102DD0008003B09181030197A109B10980937E031B
:102DE00090937F03A0938003B093810380917E032F
:102DF00090917F03A0918003B09181030197A10579
:102E0000B10551F410927E0310927F03109280035B
:102E10001092810310927D0308950E9478150E94FC
:102E2000090A80917D03882311F40E94BC130E943B
:102E30008C060895109261051092620581E08093DE
:102E4000630510926605109267051092680510924E
:102E5000690510926A0510926B0510926C0510922C
:102E60006D0510926E0510926F0510926505109217
:102E700064051092700510927105109272051092FF
:102E8000730581E090E0909375058093740510922E
:102E90007605109277051092780510927905909337
:102EA0007B0580937A0510927C0510927D05109227
:102EB0007E0510927F059093810580938005109286
:102EC00082051092830510928405109285059093D7
:102ED00087058093860510928805109289051092C7
:102EE0008A0510928B0590938D0580938C05109226
:102EF0008E0510928F0510929005109292051092F7
:102F000091050E94A2010E94DC060895EF92FF92B3
:102F10000F931F937B018C0120E030E040E05FE4E1
:102F20000E94321B88238CF0C801B70120E030E0FA
:102F300040E05FE40E94FE180E94921B9B01AC01DE
:102F4000205030404040504806C0C801B7010E94A0
:102F5000921B9B01AC01B901CA011F910F91FF9017
:102F6000EF900895A0E0B0E0E8EBF7E10C94BC1E10
:102F7000DC012B01FA019C91923008F439C1EB017C
:102F80008881823008F433C1943069F4843009F0C8
:102F90002FC111969C9111978981981709F428C126
:102FA000A7EDB1E025C1843009F421C18230A9F434
:102FB000923009F01DC19A01AD0188E0EA01099043
:102FC000AE01E90109929E018150C1F7E2018981B8
:102FD00011969C918923818308C1923009F407C11D
:102FE00012962D903C901397EB018A819B81149649
:102FF000AD90BD90CD90DC901797EC80FD800E8158
:103000001F819101281B390BB90137FF04C06627C6
:103010007727621B730B603271050CF061C01216CA
:1030200013066CF537014801062E04C09694879468
:10303000779467940A94D2F721E030E040E050E0C2
:1030400004C0220F331F441F551F6A95D2F7215029
:103050003040404050402E213F2140235123211534
:1030600031054105510521F021E030E040E050E01C
:1030700079018A01E628F728082919293CC0232B61
:10308000D1F1260E371E35014601062E04C0969456
:103090008794779467940A94D2F721E030E040E077
:1030A00050E004C0220F331F441F551F6A95D2F70A
:1030B00021503040404050402A213B214C215D218D
:1030C000211531054105510521F021E030E040E0B6
:1030D00050E059016A01A628B728C828D9280BC092
:1030E000821593052CF01C01AA24BB24650103C0A2
:1030F000EE24FF24870111969C91D20111968C91A8
:10310000981709F445C0992339F0A80197012A19A5
:103110003B094C095D0906C0A60195012E193F091E
:10312000400B510B57FD08C0118233822282248349
:103130003583468357831DC081E081833382228299
:1031400088279927DC01821B930BA40BB50B848382
:103150009583A683B7830DC0220F331F441F551FCD
:103160002483358346835783828193810197938398
:1031700082832481358146815781DA01C901019713
:10318000A109B1098F5F9F4FAF4FBF4328F30BC019
:10319000918333822282EA0CFB1C0C1D1D1DE482EC
:1031A000F5820683178383E08083248135814681FD
:1031B000578157FF1AC0C901AA2797FDA095BA2FBA
:1031C00081709070A070B07056954795379527958F
:1031D000822B932BA42BB52B84839583A683B78353
:1031E00082819381019693838283DF0101C0D201A2
:1031F000CD01CDB7DEB7E2E10C94D81EA0E2B0E07D
:10320000E4E0F9E10C94C81E69837A838B839C8384
:103210002D833E834F835887E9E0EE2EF12CEC0E90
:10322000FD1ECE010196B7010E94831D8E010F5E27
:103230001F4FCE010596B8010E94831D8A8991E037
:1032400089278A8BC701B801AE01475E5F4F0E9494
:10325000B2170E94AE1CA096E6E00C94E41EA0E219
:10326000B0E0E5E3F9E10C94C81E69837A838B83AF
:103270009C832D833E834F835887F9E0EF2EF12CFA
:10328000EC0EFD1ECE010196B7010E94831D8E013A
:103290000F5E1F4FCE010596B8010E94831DC70126
:1032A000B801AE01475E5F4F0E94B2170E94AE1C8C
:1032B000A096E6E00C94E41EA0E2B0E0E2E6F9E1BC
:1032C0000C94BC1E69837A838B839C832D833E83FD
:1032D0004F835887CE010196BE01675F7F4F0E94E2
:1032E000831DCE010596BE016F5E7F4F0E94831D38
:1032F0009985923088F089898230C8F0943019F429
:10330000823051F404C0843029F4923081F487ED86
:1033100091E0C6C0923049F420E09A858A899813DA
:1033200021E02A87CE010996BBC0823049F420E013
:103330009A858A89981321E02A8BCE014196B0C0E4
:103340002D843E844F8458886D887E888F88988C21
:10335000EE24FF248701AA24BB24650140E050E04D
:1033600060E070E0E0E0F0E0C10181709070892BD6
:10337000E9F0E60CF71C081D191D9A01AB012A0D96
:103380003B1D4C1D5D1D80E090E0A0E0B0E0E61428
:10339000F7040805190520F481E090E0A0E0B0E012
:1033A000BA01A901480F591F6A1F7B1FAA0CBB1C39
:1033B000CC1CDD1C97FE08C081E090E0A0E0B0E0EE
:1033C000A82AB92ACA2ADB2A3196E032F10549F047
:1033D000660C771C881C991C569447943794279444
:1033E000C3CFFA85EA892B893C898B859C85280F78
:1033F000391F2E5F3F4F17C0CA0181709070892B13
:1034000061F016950795F794E79480E090E0A0E0CE
:10341000B0E8E82AF92A0A2B1B2B76956795579571
:1034200047952F5F3F4F77FDE7CF0CC0440F551FE7
:10343000661F771F17FD4160EE0CFF1C001F111F58
:1034400021503040403090E0590790E0690790E407
:10345000790760F32B8F3C8FDB01CA018F77907067
:10346000A070B07080349105A105B10561F447FDED
:103470000AC0E114F1040105110529F0405C5F4F19
:103480006F4F7F4F40781A8EFE1711F081E08A8FC0
:103490004D8F5E8F6F8F78A383E0898FCE01499621
:1034A0000E94AE1CA096E2E10C94D81EA8E1B0E008
:1034B000ECE5FAE10C94C41E69837A838B839C83C8
:1034C0002D833E834F835887B9E0EB2EF12CEC0E11
:1034D000FD1ECE010196B7010E94831D8E010F5E75
:1034E0001F4FCE010596B8010E94831D2985223009
:1034F00008F47EC03989323010F4B8017CC08A8566
:103500009A8989278A87243011F0223031F42317D1
:1035100009F06EC067ED71E06EC0343039F41D867D
:103520001E861F86188A1C861B8604C0323021F432
:1035300084E08987B7015FC02B853C858B899C8996
:10354000281B390B3C872B87ED84FE840F85188957
:10355000AD88BE88CF88D88CEA14FB040C051D0505
:1035600040F4EE0CFF1C001F111F215030403C871F
:103570002B8720E030E040E050E080E090E0A0E0E9
:10358000B0E460E070E0EA14FB040C051D0540F0B7
:10359000282B392B4A2B5B2BEA18FB080C091D0939
:1035A000B695A79597958795EE0CFF1C001F111FE8
:1035B0006F5F7F4F6F31710531F7DA01C9018F7786
:1035C0009070A070B07080349105A105B10561F4D0
:1035D00027FD0AC0E114F1040105110529F0205C62
:1035E0003F4F4F4F5F4F20782D873E874F87588B37
:1035F000BE01675F7F4FCB010E94AE1C6896EAE078
:103600000C94E01EA8E1B0E0E8E0FBE10C94C81ED9
:1036100069837A838B839C832D833E834F83588772
:1036200089E0E82EF12CEC0EFD1ECE010196B701CB
:103630000E94831D8E010F5E1F4FCE010596B801BB
:103640000E94831D8985823040F08989823028F06C
:10365000C701B8010E94FB1D01C08FEF6896E6E02C
:103660000C94E41EA8E1B0E0E8E3FBE10C94C81E72
:1036700069837A838B839C832D833E834F83588712
:1036800089E0E82EF12CEC0EFD1ECE010196B7016B
:103690000E94831D8E010F5E1F4FCE010596B8015B
:1036A0000E94831D8985823040F08989823028F00C
:1036B000C701B8010E94FB1D01C08FEF6896E6E0CC
:1036C0000C94E41EA8E1B0E0E8E6FBE10C94C81E0F
:1036D00069837A838B839C832D833E834F835887B2
:1036E00089E0E82EF12CEC0EFD1ECE010196B7010B
:1036F0000E94831D8E010F5E1F4FCE010596B801FB
:103700000E94831D8985823040F08989823028F0AB
:10371000C701B8010E94FB1D01C081E06896E6E088
:103720000C94E41EACE0B0E0E8E9FBE10C94CC1EA4
:1037300069837A838B839C83CE010196BE016B5F84
:103740007F4F0E94831D8D81823061F1823050F164
:10375000843021F48E81882351F12EC02F81388549
:1037600037FD20C06E812F3131051CF06623F9F042
:1037700023C08EE190E0821B930B29853A854B850F
:103780005C8504C056954795379527958A95D2F75D
:103790006623B1F050954095309521953F4F4F4F9E
:1037A0005F4F0EC020E030E040E050E009C02FEF56
:1037B0003FEF4FEF5FE704C020E030E040E050E82B
:1037C000B901CA012C96E2E00C94E81EA8E0B0E032
:1037D000ECEEFBE10C94C41E7B018C0161157105BC
:1037E0008105910519F482E0898360C083E08983B3
:1037F0008EE1C82ED12CDC82CB82ED82FE820F833B
:103800001887C801B7010E945F1CFC013197F7FFC0
:103810003BC0222733272E1B3F0B57016801022E86
:1038200004C0D694C794B794A7940A94D2F740E002
:1038300050E060E070E081E090E0A0E0B0E004C023
:10384000880F991FAA1FBB1F2A95D2F70197A109BC
:10385000B1098E219F21A023B1230097A105B105B5
:1038600021F041E050E060E070E04A295B296C29DA
:103870007D294D835E836F8378878EE190E08E1B78
:103880009F0B9C838B8312C0309781F00E2E04C057
:10389000EE0CFF1C001F111F0A94D2F7ED82FE826E
:1038A0000F831887CE1ADF0ADC82CB821A82CE0100
:1038B00001960E94AE1C2896EAE00C94E01EEF925E
:1038C000FF920F931F937B018C0180E0E81680E04C
:1038D000F80681E0080780E0180788F48FEFE81603
:1038E000F1040105110531F028F088E090E0A0E036
:1038F000B0E017C080E090E0A0E0B0E012C080E04F
:10390000E81680E0F80680E0080781E0180728F054
:1039100088E190E0A0E0B0E004C080E190E0A0E0A9
:10392000B0E020E230E040E050E0281B390B4A0BC9
:103930005B0B04C016950795F794E7948A95D2F728
:10394000F701E152FE4F8081281B310941095109DD
:10395000C9011F910F91FF90EF900895DF92EF92B0
:10396000FF920F931F93FC01E480F580068117817D
:10397000D1808081823048F480E090E0A0E1B0E026
:10398000E82AF92A0A2B1B2BA5C0843009F49FC012
:10399000823021F4EE24FF24870105C0E114F104F4
:1039A0000105110519F4E0E0F0E096C06281738131
:1039B0009FEF623879070CF05BC022E83FEF261BCF
:1039C000370B2A3131052CF020E030E040E050E0A8
:1039D0002AC0B801A701022E04C0769567955795B5
:1039E00047950A94D2F781E090E0A0E0B0E004C0EF
:1039F000880F991FAA1FBB1F2A95D2F70197A1090B
:103A0000B1098E219F21A023B1230097A105B10503
:103A100021F081E090E0A0E0B0E09A01AB01282B1A
:103A2000392B4A2B5B2BDA01C9018F779070A0707C
:103A3000B07080349105A105B10539F427FF09C0A4
:103A4000205C3F4F4F4F5F4F04C0215C3F4F4F4FB3
:103A50005F4FE0E0F0E02030A0E03A07A0E04A0746
:103A6000A0E45A0710F0E1E0F0E079018A0127C0F4
:103A70006038710564F5FB01E158FF4FD801C701BB
:103A80008F779070A070B07080349105A105B1055A
:103A900039F4E7FE0DC080E490E0A0E0B0E004C09F
:103AA0008FE390E0A0E0B0E0E80EF91E0A1F1B1FB4
:103AB00017FF05C016950795F794E794319687E0B0
:103AC00016950795F794E7948A95D1F705C0EE24EB
:103AD000FF248701EFEFF0E06E2F6795662767956B
:103AE000902F9F77D794DD24D7948E2F8695492FDA
:103AF000462B582F5D29B701CA011F910F91FF90E6
:103B0000EF90DF900895FC01DB014081518122811B
:103B1000622F6F7770E0221F2227221F9381892F47
:103B2000880F822B282F30E0991F9927991F119613
:103B30009C93119721153105A9F541155105610592
:103B4000710511F482E037C082E89FEF13969C93D1
:103B50008E9312979A01AB0167E0220F331F441F27
:103B6000551F6A95D1F783E08C930DC0220F331F48
:103B7000441F551F12968D919C9113970197139690
:103B80009C938E931297203080E0380780E048079E
:103B900080E4580758F314962D933D934D935C930E
:103BA000179708952F3F310579F4411551056105A7
:103BB000710519F484E08C93089564FF03C081E0DB
:103BC0008C9312C01C9210C02F57304013963C9318
:103BD0002E93129783E08C9387E0440F551F661F46
:103BE000771F8A95D1F7706414964D935D936D930A
:103BF0007C93179708951F93DC01FB019C919230F1
:103C000008F447C08081823008F443C0943051F4F6
:103C100011961C91843099F58181682F70E0611BA9
:103C200071093FC0843021F0923031F48230B9F113
:103C30008181882389F12DC011961C9111978230C2
:103C4000F1F081811817D9F412962D913C911397B8
:103C5000828193818217930794F028173907BCF06B
:103C600014968D919D910D90BC91A02D248135814C
:103C700046815781281739074A075B0718F4112333
:103C800041F00AC082179307A407B50740F4112337
:103C900019F061E070E005C06FEF7FEF02C060E0F7
:103CA00070E0CB011F910895629FD001739FF001D6
:103CB000829FE00DF11D649FE00DF11D929FF00DBC
:103CC000839FF00D749FF00D659FF00D9927729FF3
:103CD000B00DE11DF91F639FB00DE11DF91FBD017E
:103CE000CF0111240895AA1BBB1B51E107C0AA1FD5
:103CF000BB1FA617B70710F0A61BB70B881F991F8D
:103D00005A95A9F780959095BC01CD01089597FB30
:103D1000092E07260AD077FD04D0E5DF06D0002063
:103D20001AF4709561957F4F0895F6F790958195F7
:103D30009F4F0895A1E21A2EAA1BBB1BFD010DC0C7
:103D4000AA1FBB1FEE1FFF1FA217B307E407F5074B
:103D500020F0A21BB30BE40BF50B661F771F881F27
:103D6000991F1A9469F760957095809590959B01BD
:103D7000AC01BD01CF0108952F923F924F925F9207
:103D80006F927F928F929F92AF92BF92CF92DF926B
:103D9000EF92FF920F931F93CF93DF93CDB7DEB7D0
:103DA000CA1BDB0B0FB6F894DEBF0FBECDBF099464
:103DB0002A88398848885F846E847D848C849B84BB
:103DC000AA84B984C884DF80EE80FD800C811B81C9
:103DD000AA81B981CE0FD11D0FB6F894DEBF0FBEF8
:103DE000CDBFED010895FB01DC0102C001900D92F1
:0C3DF00041505040D8F70895F894FFCFE0
:103DFC00050607030400010250515253545759331E
:103E0C003435363738393A3B3C3D3E3F40414243EE
:103E1C00440E0F101112131415161718191A1B1C17
:103E2C001D1E1F2021222324252627090A0B0C0DD9
:103E3C00232515161718191A1B1C292A2B2E2F305F
:103E4C00313233340E0F10111213141516171819B2
:103E5C001A1B1C1D1E1F2021222324252627333428
:103E6C0035363738393A3B3C3D3E3F40414243447E
:103E7C0003040001020506075051525354575909C7
:103E8C000A0B0C0DAC0DD70E9208F6085A09BE0998
:103E9C00220A9108F5085909BD09210A9008F4086D
:103EAC005809BC09200A860AEA0A4E0B6010C41095
:103EBC0028115412B8121C1380138813EC135014CD
:103ECC0000010203040709000000000000000000CC
:103EDC0001020203030303040404040404040405A0
:103EEC000505050505050505050505050505050675
:103EFC000606060606060606060606060606060656
:103F0C000606060606060606060606060606060744
:103F1C000707070707070707070707070707070725
:103F2C000707070707070707070707070707070715
:103F3C000707070707070707070707070707070705
:103F4C0007070707070707070707070707070708F4
:103F5C0008080808080808080808080808080808D5
:103F6C0008080808080808080808080808080808C5
:103F7C0008080808080808080808080808080808B5
:103F8C0008080808080808080808080808080808A5
:103F9C000808080808080808080808080808080895
:103FAC000808080808080808080808080808080885
:103FBC000808080808080808080808080808080875
:103FCC00080808080808080808080808080808006D
:00000001FF
